:100000000C942D010C944A010C944A010C944A0161
:100010000C944A010C944A010C944A010C944A0134
:100020000C944A010C944A010C944A010C944A0124
:100030000C944A010C944A010C944A010C944A0114
:100040000C944A010C944A010C944A010C944A0104
:100050000C944A010C944A010C944A010C944A01F4
:100060000C944A010C944A010C944A010C944A01E4
:10007000000000000000005F0000000700070014FF
:100080007F147F14242A7F2A1223130864623649BE
:100090005522500005030000001C224100004122AF
:1000A0001C00082A1C2A0808083E080800503000D6
:1000B000000808080808006060000020100804021A
:1000C0003E5149453E00427F400042615149462130
:1000D00041454B311814127F1027454545393C4A9C
:1000E00049493001710905033649494936064949EC
:1000F000291E003636000000563600000008142283
:100100004114141414144122140800020151090668
:10011000324979413E7E1111117E7F494949363E6F
:10012000414141227F4141221C7F494949417F0988
:100130000901013E414151327F0808087F00417F9B
:1001400041002040413F017F081422417F40404050
:10015000407F0204027F7F0408107F3E4141413E00
:100160007F090909063E4151215E7F09192946464A
:100170004949493101017F01013F4040403F1F2073
:1001800040201F7F2018207F631408146303047825
:100190000403615149454300007F414102040810B6
:1001A0002041417F000004020102044040404040E1
:1001B000000102040020545454787F4844443838E5
:1001C00044444420384444487F3854545418087EEA
:1001D000090102081454543C7F0804047800447D4B
:1001E00040002040443D00007F10284400417F40F3
:1001F000007C041804787C080404783844444438AB
:100200007C14141408081414187C7C08040408488E
:1002100054545420043F4440203C4040207C1C2047
:1002200040201C3C4030403C44281028440C505096
:10023000503C4464544C44000836410000007F00A8
:1002400000004136080002010302017E117F515176
:100250002454785458102720271011241FBECFEFA4
:10026000D4E0DEBFCDBF11E0A0E0B1E0E8E3F3E110
:1002700002C005900D92AC3BB107D9F721E0ACEB81
:10028000B1E001C01D92A23DB207E1F70E94200239
:100290000C949A090C940000309808958C5F809318
:1002A000001482E58A95F1F7809100140895B898BA
:1002B000B998BA98C29A089585B7806885BF80B703
:1002C000806280BF08959C012D513109273C310582
:1002D00048F031E020E0843E91050CF430E0832FBB
:1002E000922F089584E090E008959C0129503109EF
:1002F0002F3E310530F0883F910534F083E090E0E7
:10030000089584E090E0089582E090E008950F93CE
:100310001F93CF93DF9381E090E00E944E010E94F3
:100320007501EC0180E090E00E944E010E946301A3
:100330008C018091BE019091BF018C179D0721F027
:100340000E941C049E010BC08091BC019091BD01D4
:100350008017910709F456C00E941C0498012130AF
:10036000310551F11CF4232BD1F14FC0223031055E
:1003700021F02330310589F048C0E091C001F091AF
:10038000C10182819381009709F442C09093C10119
:100390008093C00181E090E046C0E091C001F091FF
:1003A000C101848195810097B1F19093C10180933F
:1003B000C00181E090E037C0E091C001F091C1013F
:1003C00086819781009751F19093C1018093C0017C
:1003D0009093C5018093C40181E090E024C0E09136
:1003E000C001F091C101808591850097D1F0909373
:1003F000C1018093C0019093C5018093C40181E045
:1004000090E011C080E090E00EC081E090E00BC071
:1004100081E090E008C081E090E005C081E090E0DC
:1004200002C081E090E0D093BF01C093BE01109361
:10043000BD010093BC01DF91CF911F910F910895F1
:100440008FE190E00E9437050E945C010E945701F5
:100450000E944C010E9435040E941C040E9451021B
:100460000E94A9030E94EE039091C7018091C601EA
:100470001F929F931F928F9386E091E09F938F939B
:100480000E94B4060F900F900F900F900F900F9056
:100490000E948701892BE1F30E94A9030E94EE03C9
:1004A000F7CF2F923F924F925F926F927F928F92EF
:1004B0009F92AF92BF92CF92DF92EF92FF920F93F3
:1004C0001F93CF93DF9300D000D000D0CDB7DEB71D
:1004D0008AE090E00E9442059E838D838AE090E04E
:1004E0000E9442054C018AE090E00E9442055C01B6
:1004F0008AE090E00E9442059A8389838AE090E036
:100500000E9442056C018AE090E00E9442058C0145
:100510008AE090E00E9442057C018AE090E00E941F
:1005200042052C018AE090E00E9442059C838B8367
:100530008AE090E00E9442053C018AE090E00E943F
:1005400042051C018AE090E00E9442059C019093C4
:10055000C3018093C2018D819E819093C5018093D8
:10056000C4019093C1018093C00181E291E0AD810B
:10057000BE8111969C938E9315961C921E92149791
:100580001396DC92CE92129717969C928E921697A3
:1005900019961C921E92189780E391E0F4019183C2
:1005A000808315821482B382A28217821682B18759
:1005B000A08785E391E0D50111969C938E931596C3
:1005C0009C928E921497E981FA811396FC93EE9394
:1005D000129717961C921E9216978D819E811996DE
:1005E0009C938E9318978CE391E091838083B582DE
:1005F000A4821382128217821682AD81BE81B187D6
:10060000A08781E491E0F60191838083B583A48380
:100610001383028317821682118610868BE491E081
:10062000D80111969C938E931596DC92CE921497D6
:1006300013963C922E92129717967C926E92169772
:1006400019961C921E92189783E591E0F30191830D
:10065000808315821482F382E282178216821187C8
:1006600000878FE591E0D70111969C938E931596A4
:100670007C926E92149713961C921E921297179664
:100680005C924E92169719961C930E93189785E6D6
:1006900091E0F20191838083158214828B819C8189
:1006A0009383828317821682F186E0868EE691E03C
:1006B000AB81BC8111969C938E9315965C924E9261
:1006C000149713961C921E92129717961C921E92C4
:1006D00016971996FC92EE92189788E791E0F1012F
:1006E0009183808315830483138212823783268348
:1006F0001186108680E891E0D90111969C938E9323
:1007000015961C921E92149713961C921E92129785
:1007100017961C921E92169719963C922E92189735
:1007200026960FB6F894DEBF0FBECDBFDF91CF91F6
:100730001F910F91FF90EF90DF90CF90BF90AF90FF
:100740009F908F907F906F905F904F903F902F90F1
:1007500008951F93CF93DF93C091C401D091C50139
:100760008C819D81009711F0EC01FACF209709F15F
:1007700010E08091C0019091C1018C179D0769F430
:100780002091C2013091C3018217930731F040E0FC
:10079000612F88EB91E00E94DC0444E1612F8881A5
:1007A00099810E94DC040A80DB81C02D1F5F2097A5
:1007B00001F7DF91CF911F910895982F9F70E0E08E
:1007C000F0E1908382958F70805F808308958055DB
:1007D00080930010862F0E94DD030895DF92EF9230
:1007E000FF920F931F93CF93DF9300E010E0F12C63
:1007F000D12CE12CC0E0D2E160E08F2D0E94E70314
:100800002D2D3E2DA801585EFA01E20FF31F9081B5
:1008100098832F5F3F4F20383105B1F7F39400588C
:100820001F4F88E0F812E8CFDF91CF911F910F9111
:10083000FF90EF90DF9008951F93CF93DF9310E028
:10084000D0E0812F0E947404CD2F8C2F0E9477045A
:100850008D2F0E946704CF5FC038B9F71F5F183033
:1008600081F7DF91CF911F910895E0E0F0E18EEAEA
:10087000808381EA80838AED808382E1808388ECB3
:10088000808388EA80838FE3808385ED808380E89E
:10089000808381E8808380E5808389ED808381E2A5
:1008A000808380E2808382E080838BED808380E39D
:1008B00080838DEA8083108284EA808386EA808345
:1008C0008FEA80831092C6011092C701089590911B
:1008D000C601E091C701F0E020E8929FE00DF11D14
:1008E0001124F85E808308958093C6010895809353
:1008F000C7010895CF92DF92EF92FF920F931F935B
:10090000CF93DF93082F10E0CBE4D2E0C8018097AB
:100910007C01EE0CFF1CEE0CFF1C8E0D9F1D9C013C
:1009200020593F4F79010F2EF0E5CF2EF2E0DF2E58
:10093000F02D063C110551F4FE0184910E946704DC
:100940008091C7018F5F8093C70125C0063E1105C6
:1009500059F4FE01359684910E9467048091C70185
:100960008F5F8093C70117C0083A110559F4FE0143
:100970003A9684910E9467048091C7018F5F8093AB
:10098000C70109C0F70184910E9467048091C701E3
:100990008F5F8093C7012196FFEFEF1AFF0ACC15F6
:1009A000DD0509F0C6CFDF91CF911F910F91FF9028
:1009B000EF90DF90CF9008958F929F92AF92BF9269
:1009C000CF92DF92EF92FF920F931F93CF93DF931B
:1009D0007C016093C6014093C7010091C70110E0FC
:1009E0006C01C0E0D0E0A12CB12C812C912C20C056
:1009F000CE01880F991F880F991F8C0F9D1F800FA4
:100A0000911F8C3791055CF08091C6018F5F8093B8
:100A1000C6011092C701C82DD92D082D192D219678
:100A2000F60181916F010E947A04FFEFAF1ABF0AAD
:100A3000F70101900020E9F73197EE19FF09AE1692
:100A4000BF06B0F2DF91CF911F910F91FF90EF9011
:100A5000DF90CF90BF90AF909F908F9008955D9B57
:100A6000FECF8CB908955F9BFECF8CB1089590BDE9
:100A700089B988E18AB963E375E08FE295E00E9465
:100A800069060895CF93DF938230910510F482E0D8
:100A900090E0E091CA01F091CB0120E030E0A0E0CD
:100AA000B0E0309739F14081518148175907B8F0CB
:100AB0004817590771F482819381109729F0139692
:100AC0009C938E9312972CC09093CB018093CA0174
:100AD00027C02115310531F04217530718F0A9013D
:100AE000DB0101C0EF019A01BD01DF010280F3814A
:100AF000E02DD7CF21153105F9F0281B390B243013
:100B0000310580F48A819B816115710521F0FB011B
:100B10009383828304C09093CB018093CA01FE012A
:100B2000329644C0FE01E20FF31F8193919322504D
:100B30003109398328833AC02091C8013091C90115
:100B4000232B41F420910201309103013093C9011C
:100B50002093C80120910001309101012115310538
:100B600041F42DB73EB74091040150910501241B7B
:100B7000350BE091C801F091C901E217F307A0F429
:100B80002E1B3F0B2817390778F0AC014E5F5F4FE3
:100B90002417350748F04E0F5F1F5093C90140934B
:100BA000C8018193919302C0E0E0F0E0CF01DF91B2
:100BB000CF910895CF93DF93009709F487C0FC018C
:100BC000329713821282C091CA01D091CB01209733
:100BD00081F420813181280F391F8091C8019091C3
:100BE000C9018217930779F5F093C901E093C80111
:100BF0006DC0DE0120E030E0AE17BF0750F4129662
:100C00004D915C9113979D014115510509F1DA0150
:100C1000F3CFB383A28340815181840F951F8A173C
:100C20009B0771F48D919C911197840F951F0296EB
:100C30009183808312968D919C91139793838283E5
:100C40002115310529F4F093CB01E093CA013EC090
:100C5000D9011396FC93EE9312974D915D91A40FD9
:100C6000B51FEA17FB0779F480819181840F951FE6
:100C70000296D90111969C938E938281938113964B
:100C80009C938E931297E0E0F0E08A819B8100971D
:100C900019F0FE01EC01F9CFCE01029628813981CD
:100CA000820F931F2091C8013091C901281739077D
:100CB00069F4309729F41092CB011092CA0102C056
:100CC00013821282D093C901C093C801DF91CF91E2
:100CD00008950F931F93CF93DF93EC018B0100973F
:100CE00031F46115710519F480E090E038C06EE0D0
:100CF00070E081E090E00E949A08FC010097A1F367
:100D000080E883830115110571F01387028781E85C
:100D100083838091CC019091CD01892B21F4F093B4
:100D2000CD01E093CC012097C9F0D187C0878381A2
:100D3000826083838091CE019091CF01892B71F4E1
:100D4000F093CF01E093CE018091D0019091D10139
:100D5000892B21F4F093D101E093D001CF01DF91F1
:100D6000CF911F910F910895A0E0B0E0EAEBF6E07B
:100D70000C947309FE01359661917191AF018091D8
:100D8000CE019091CF010E94C806E2E00C948F0939
:100D9000ACE0B0E0EEECF6E00C9463097C016B0192
:100DA0008A01FC0117821682838181FFBDC1CE01B9
:100DB00001964C01F7019381F60193FD859193FF14
:100DC00081916F01882309F4ABC1853239F493FD19
:100DD000859193FF81916F01853229F4B70190E0ED
:100DE0000E94D308E7CF512C312C20E02032A0F410
:100DF0008B3269F030F4803259F0833269F420612B
:100E00002CC08D3239F0803339F4216026C0226045
:100E1000246023C0286021C027FD27C030ED380F93
:100E20003A3078F426FF06C0FAE05F9E300D1124B8
:100E3000532E13C08AE0389E300D1124332E2062C9
:100E40000CC08E3221F426FD6BC1206406C08C36A6
:100E500011F4206802C0883641F4F60193FD8591B3
:100E600093FF81916F018111C1CF982F9F7D955480
:100E7000933028F40C5F1F4FFFE3F9830DC08336D6
:100E800031F0833771F0833509F05BC022C0F8017F
:100E9000808189830E5F1F4F44244394512C540159
:100EA00015C03801F2E06F0E711CF801A080B1800E
:100EB00026FF03C0652D70E002C06FEF7FEFC50114
:100EC0002C870E94C8082C0183012C852F77222EA5
:100ED00017C03801F2E06F0E711CF801A080B180DC
:100EE00026FF03C0652D70E002C06FEF7FEFC501E4
:100EF0002C870E94B6082C012C852068222E8301A5
:100F000023FC1BC0832D90E048165906B0F4B701AE
:100F100080E290E00E94D3083A94F4CFF50127FCD8
:100F2000859127FE81915F01B70190E00E94D3086F
:100F300031103A94F1E04F1A51084114510471F7FD
:100F4000E5C0843611F0893639F5F80127FF07C06E
:100F500060817181828193810C5F1F4F08C0608125
:100F60007181882777FD8095982F0E5F1F4F2F7610
:100F7000B22E97FF09C090958095709561957F4F2F
:100F80008F4F9F4F2068B22E2AE030E0A4010E94CC
:100F90000509A82EA81844C0853729F42F7EB22E43
:100FA0002AE030E025C0F22FF97FBF2E8F36C1F046
:100FB00018F4883579F0B4C0803719F0883721F0FB
:100FC000AFC02F2F2061B22EB4FE0DC08B2D8460D8
:100FD000B82E09C024FF0AC09F2F9660B92E06C004
:100FE00028E030E005C020E130E002C020E132E03E
:100FF000F801B7FE07C060817181828193810C5F27
:101000001F4F06C06081718180E090E00E5F1F4F2E
:10101000A4010E940509A82EA818FB2DFF77BF2E5A
:10102000B6FE0BC02B2D2E7FA51450F4B4FE0AC0C3
:10103000B2FC08C02B2D2E7E05C07A2C2B2D03C0B0
:101040007A2C01C0752C24FF0DC0FE01EA0DF11DA4
:101050008081803311F4297E09C022FF06C0739479
:10106000739404C0822F867809F0739423FD13C013
:1010700020FF06C05A2C731418F4530C5718732C05
:10108000731468F4B70180E290E02C870E94D308C3
:1010900073942C85F5CF731410F4371801C0312CDC
:1010A00024FF12C0B70180E390E02C870E94D30890
:1010B0002C8522FF17C021FF03C088E590E002C005
:1010C00088E790E0B7010CC0822F867859F021FDA7
:1010D00002C080E201C08BE227FD8DE2B70190E003
:1010E0000E94D308A51438F4B70180E390E00E9471
:1010F000D3085A94F7CFAA94F401EA0DF11D808128
:10110000B70190E00E94D308A110F5CF332009F475
:1011100051CEB70180E290E00E94D3083A94F6CF16
:10112000F7018681978102C08FEF9FEF2C96E2E155
:101130000C947F090F931F93CF93DF93869F8001B9
:10114000879F100D969F100D1124C8010E94420523
:10115000EC01009729F0A80160E070E00E94C1084E
:10116000CE01DF91CF911F910F910895FC01059061
:10117000615070400110D8F7809590958E0F9F1F99
:101180000895DC0101C06D9341505040E0F708958F
:10119000FC016150704001900110D8F78095909546
:1011A0008E0F9F1F08950F931F93CF93DF93182FD8
:1011B000092FEB018B8181FD03C08FEF9FEF20C0D2
:1011C00082FF10C04E815F812C813D814217530701
:1011D0007CF4E881F9819F012F5F3F4F3983288399
:1011E000108306C0E885F985812F0995892B29F799
:1011F0002E813F812F5F3F4F3F832E83812F902F82
:10120000DF91CF911F910F910895FA01AA272830FD
:1012100051F1203181F1E8946F936E7F6E5F7F4FC3
:101220008F4F9F4FAF4FB1E03ED0B4E03CD0670F3F
:10123000781F891F9A1FA11D680F791F8A1F911D92
:10124000A11D6A0F711D811D911DA11D20D009F4E2
:1012500068943F912AE0269F11243019305D319324
:10126000DEF6CF010895462F4770405D4193B3E00D
:101270000FD0C9F7F6CF462F4F70405D4A3318F0B4
:10128000495D31FD4052419302D0A9F7EACFB4E065
:10129000A6959795879577956795BA95C9F700971D
:1012A0006105710508959B01AC010A2E06945795BE
:1012B000479537952795BA95C9F7620F731F841F15
:1012C000951FA01D08952F923F924F925F926F92AB
:1012D0007F928F929F92AF92BF92CF92DF92EF92C6
:1012E000FF920F931F93CF93DF93CDB7DEB7CA1B47
:1012F000DB0B0FB6F894DEBF0FBECDBF09942A8872
:10130000398848885F846E847D848C849B84AA8419
:10131000B984C884DF80EE80FD800C811B81AA81A6
:10132000B981CE0FD11D0FB6F894DEBF0FBECDBF71
:08133000ED010895F894FFCFD0
:101338000000D2012000504147453A20202569206D
:10134800202020434F4C3A20202020256920200AC5
:10135800004675636B206D652075702066616D00B1
:1013680045617379004E6F726D616C0048617264FB
:10137800004869676873636F7265004F7074696FBE
:101388006E730053656E7369746976697479005376
:101398006F756E6400536F756E64206F6E00536FC7
:1013A800756E64206F6666004372656469747300C5
:1013B80044616E69656C20546176616B6F6C692C51
:1013C8002C2C4E69636F6C617320436172626F6E7F
:1013D800652C2C2C4279676765726E20417574758F
:0C13E8006D6E2032303137002D2D3E009C
:00000001FF
