S00C00006C6162312E73726563B8
S11300000C9426010C9443010C9443010C94430179
S11300100C9443010C9443010C9443010C9443014C
S11300200C9443010C9443010C9443010C9443013C
S11300300C9443010C9443010C9443010C9443012C
S11300400C9443010C9443010C9443010C9443011C
S11300500C9443010C9443010C9443010C9443010C
S11300600C9443010C9443010C9443010C944301FC
S1130070000000000000005F0000000700070014FB
S11300807F147F14242A7F2A1223130864623649BA
S11300905522500005030000001C224100004122AB
S11300A01C00082A1C2A0808083E080800503000D2
S11300B00008080808080060600000201008040216
S11300C03E5149453E00427F40004261514946212C
S11300D041454B311814127F1027454545393C4A98
S11300E049493001710905033649494936064949E8
S11300F0291E00363600000056360000000814227F
S11301004114141414144122140800020151090664
S1130110324979413E7E1111117E7F494949363E6B
S1130120414141227F4141221C7F494949417F0984
S11301300901013E414151327F0808087F00417F97
S113014041002040413F017F081422417F4040404C
S1130150407F0204027F7F0408107F3E4141413EFC
S11301607F090909063E4151215E7F091929464646
S11301704949493101017F01013F4040403F1F206F
S113018040201F7F2018207F631408146303047821
S11301900403615149454300007F414102040810B2
S11301A02041417F000004020102044040404040DD
S11301B0000102040020545454787F4844443838E1
S11301C044444420384444487F3854545418087EE6
S11301D0090102081454543C7F0804047800447D47
S11301E040002040443D00007F10284400417F40EF
S11301F0007C041804787C080404783844444438A7
S11302007C14141408081414187C7C08040408488A
S113021054545420043F4440203C4040207C1C2043
S113022040201C3C4030403C44281028440C505092
S1130230503C4464544C44000836410000007F00A4
S113024000004136080002010302010011241FBE10
S1130250CFEFD4E0DEBFCDBF11E0A0E0B1E0EEE728
S1130260F1E102C005900D92AE39B107D9F721E052
S1130270AEE9B1E001C01D92A03BB207E1F70E94D4
S113028019020C94BD080C940000309808958C5FFA
S11302908093001482E58A95F1F780910014089503
S11302A0B898B998BA98C29A089585B7806885BFF6
S11302B080B7806280BF08959C01295731092E3090
S11302C0310548F031E020E0873891050CF430E046
S11302D0832F922F089584E090E008959C012D5679
S11302E031092632310530F08339910534F083E049
S11302F090E0089584E090E0089582E090E008950D
S11303000F931F93CF93DF9381E090E00E94470106
S11303100E946E01EC0180E090E00E9447010E947F
S11303205C018C018091A0019091A1018C179D0723
S113033021F00E9468039E010BC080919E01909160
S11303409F018017910709F456C00E946803980121
S11303502130310551F11CF4232BD1F14FC022304F
S1130360310521F02330310589F048C0E091A20124
S1130370F091A30182819381009709F442C0909384
S1130380A3018093A20181E090E046C0E091A20124
S1130390F091A301848195810097B1F19093A30119
S11303A08093A20181E090E037C0E091A201F09136
S11303B0A30186819781009751F19093A3018093C3
S11303C0A2019093A5018093A40181E090E024C050
S11303D0E091A201F091A301808591850097D1F06D
S11303E09093A3018093A2019093A5018093A4010B
S11303F081E090E011C080E090E00EC081E090E0E8
S11304000BC081E090E008C081E090E005C081E08D
S113041090E002C081E090E0D093A101C093A001DC
S113042010939F0100939E01DF91CF911F910F9133
S113043008958FE190E00E942D040E9455010E94CE
S113044050010E9445010E94F7030E9468030E9424
S11304504C020E942C03C6E0D1E00E948001892B4B
S113046011F00E942C0381E00E944701182F81E0C3
S11304700E94470190E00E946E011F921F939F9378
S11304808F93DF93CF930E94AA050F900F900F9044
S11304900F900F900F90E1CF6F927F928F929F9267
S11304A0AF92BF92CF92DF92EF92FF920F931F937E
S11304B0CF93DF938AE090E00E943804EC018AE055
S11304C090E00E9438045C018AE090E00E943804C5
S11304D06C018AE090E00E9438044C018AE090E0CC
S11304E00E9438043C018AE090E00E9438047C01B8
S11304F08AE090E00E9438048C018AE090E00E9437
S11305003804FC01D093A501C093A401D093A301A6
S1130510C093A20187E191E0998388831D821C82A4
S1130520BB82AA82FF82EE821986188680E291E05D
S1130530D50111969C938E931596DC93CE931497C4
S11305401396DC92CE92129717961C921E921697CF
S113055019961C921E9218978AE291E0D601119680
S11305609C938E931596BC92AE92149713969C927C
S11305708E92129717961C921E92169719961C9299
S11305801E92189782E391E0D40111969C938E9366
S11305901596DC92CE92149713961C921E92129783
S11305A017967C926E92169719961C921E92189723
S11305B08AE391E0D70111969C938E9315961C9231
S11305C01E92149713961C930E93129717961C92CF
S11305D01E9216971996DC93CE9318978FE391E0A9
S11305E0D80111969C938E931596FC92EE921497D3
S11305F01396FC93EE93129717961C921E921697DD
S11306001996DC93CE93189786E491E091838083C6
S1130610158304831382128217821682D187C087BE
S11306208BE491E0F3019183808315821482138219
S1130630128217821682D187C087DF91CF911F91D2
S11306400F91FF90EF90DF90CF90BF90AF909F906D
S11306508F907F906F9008951F93CF93DF93C091F5
S1130660A401D091A5012097F1F010E08091A2019E
S11306709091A3018C179D0751F481E991E00E94A8
S1130680BE0542E3612F87E991E00E94920340E0B6
S1130690612F888199810E9492030A80DB81C02D99
S11306A01F5F209719F7DF91CF911F910895982F1D
S11306B09F70E0E0F0E1908382958F70805F80838B
S11306C00895805580930010862F0E945703089543
S11306D020EBA0E0B0E140E830E0E0E0F2E12C9370
S11306E0842F932F108201970097E1F72F5F283B07
S11306F0B1F70895E82FF0E0B097CF01880F991F64
S1130700880F991FE80FF91FE059FF4F80E090E030
S1130710A0E0B2E124912C930196319685309105A5
S1130720C9F708957F928F929F92AF92BF92CF9212
S1130730DF92EF92FF920F931F93CF93DF937C018D
S1130740962EA42E642F892D0E946103B12CF701EB
S113075001900020E9F73197EE19FF09FF93EF9319
S11307608BE991E09F938F930E94AA0567010F90F4
S11307700F900F900F90C0E0D0E000E010E0712CDB
S1130780812C1DC0CE01880F991F880F991F8C0FD3
S11307909D1F8A0D9B1D8C3791054CF0939460E04E
S11307A0892D0E946103C72DD82DA72CB82C219622
S11307B0F60181916F010E947A030F5F1F4FF701C9
S11307C001900020E9F73197EE19FF090E171F0772
S11307D0C8F2DF91CF911F910F91FF90EF90DF90BE
S11307E0CF90BF90AF909F908F907F900895E0E05E
S11307F0F0E18EEA808381EA80838AED808382E15E
S1130800808388EC808388EA80838FE3808385ED0E
S1130810808380E8808381E8808380E5808389ED1C
S1130820808381E2808380E2808382E080838BED19
S1130830808380E380838DEA8083108284EA8083CE
S113084086EA80838FEA808308955D9BFECF8CB90E
S113085008955F9BFECF8CB1089590BD89B988E15E
S11308608AB969E274E085E294E00E945F05089524
S1130870CF93DF938230910510F482E090E0E09111
S1130880A801F091A90120E030E0A0E0B0E03097A9
S113089039F14081518148175907B8F04817590771
S11308A071F482819381109729F013969C938E930F
S11308B012972CC09093A9018093A80127C02115F9
S11308C0310531F04217530718F0A901DB0101C0CB
S11308D0EF019A01BD01DF010280F381E02DD7CF42
S11308E021153105F9F0281B390B2430310580F42A
S11308F08A819B816115710521F0FB0193838283B9
S113090004C09093A9018093A801FE01329644C0CB
S1130910FE01E20FF31F8193919322503109398331
S113092028833AC02091A6013091A701232B41F4DA
S113093020910201309103013093A7012093A60175
S113094020910001309101012115310541F42DB7A9
S11309503EB74091040150910501241B350BE091F1
S1130960A601F091A701E217F307A0F42E1B3F0B99
S11309702817390778F0AC014E5F5F4F241735070D
S113098048F04E0F5F1F5093A7014093A601819337
S1130990919302C0E0E0F0E0CF01DF91CF910895A0
S11309A0CF93DF93009709F487C0FC013297138239
S11309B01282C091A801D091A901209781F42081CD
S11309C03181280F391F8091A6019091A7018217C8
S11309D0930779F5F093A701E093A6016DC0DE01BA
S11309E020E030E0AE17BF0750F412964D915C91B1
S11309F013979D014115510509F1DA01F3CFB38332
S1130A00A28340815181840F951F8A179B0771F43B
S1130A108D919C911197840F951F029691838083E9
S1130A2012968D919C91139793838283211531059E
S1130A3029F4F093A901E093A8013EC0D9011396CB
S1130A40FC93EE9312974D915D91A40FB51FEA1795
S1130A50FB0779F480819181840F951F0296D90157
S1130A6011969C938E938281938113969C938E937B
S1130A701297E0E0F0E08A819B81009719F0FE0173
S1130A80EC01F9CFCE01029628813981820F931FA0
S1130A902091A6013091A7012817390769F43097EE
S1130AA029F41092A9011092A80102C013821282A3
S1130AB0D093A701C093A601DF91CF9108950F931E
S1130AC01F93CF93DF93EC018B01009731F46115F1
S1130AD0710519F480E090E038C06EE070E081E0C8
S1130AE090E00E94BD07FC010097A1F380E8838396
S1130AF00115110571F01387028781E883838091C2
S1130B00AA019091AB01892B21F4F093AB01E093FE
S1130B10AA012097C9F0D187C0878381826083832B
S1130B208091AC019091AD01892B71F4F093AD01EA
S1130B30E093AC018091AE019091AF01892B21F437
S1130B40F093AF01E093AE01CF01DF91CF911F91FC
S1130B500F910895A0E0B0E0E0EBF5E00C94960866
S1130B60FE01359661917191AF018091AC01909134
S1130B70AD010E94EB05E2E00C94B2080F931F93C1
S1130B80CF93DF93E091AC01F091AD01238121FF7C
S1130B901BC0EC0100E010E089916091AC01709100
S1130BA0AD01DB011896ED91FC911997882331F082
S1130BB00995892B89F30FEF1FEFEECF8AE0099592
S1130BC0892B11F4C80102C08FEF9FEFDF91CF9101
S1130BD01F910F910895ACE0B0E0E1EFF5E00C94C3
S1130BE086087C016B018A01FC01178216828381CD
S1130BF081FFBDC1CE0101964C01F7019381F6013D
S1130C0093FD859193FF81916F01882309F4ABC112
S1130C10853239F493FD859193FF81916F0185327B
S1130C2029F4B70190E00E94F607E7CF512C312C4C
S1130C3020E02032A0F48B3269F030F4803259F095
S1130C40833269F420612CC08D3239F0803339F459
S1130C50216026C02260246023C0286021C027FDB3
S1130C6027C030ED380F3A3078F426FF06C0FAE09A
S1130C705F9E300D1124532E13C08AE0389E300D30
S1130C801124332E20620CC08E3221F426FD6BC158
S1130C90206406C08C3611F4206802C0883641F402
S1130CA0F60193FD859193FF81916F018111C1CF6D
S1130CB0982F9F7D9554933028F40C5F1F4FFFE3CA
S1130CC0F9830DC0833631F0833771F0833509F031
S1130CD05BC022C0F801808189830E5F1F4F4424CA
S1130CE04394512C540115C03801F2E06F0E711C6D
S1130CF0F801A080B18026FF03C0652D70E002C01A
S1130D006FEF7FEFC5012C870E94EB072C01830155
S1130D102C852F77222E17C03801F2E06F0E711C3C
S1130D20F801A080B18026FF03C0652D70E002C0E9
S1130D306FEF7FEFC5012C870E94D9072C012C850A
S1130D402068222E830123FC1BC0832D90E04816CB
S1130D505906B0F4B70180E290E00E94F6073A9495
S1130D60F4CFF50127FC859127FE81915F01B7013E
S1130D7090E00E94F60731103A94F1E04F1A5108BE
S1130D804114510471F7E5C0843611F0893639F500
S1130D90F80127FF07C060817181828193810C5F14
S1130DA01F4F08C060817181882777FD8095982F37
S1130DB00E5F1F4F2F76B22E97FF09C09095809536
S1130DC0709561957F4F8F4F9F4F2068B22E2AE018
S1130DD030E0A4010E942808A82EA81844C0853732
S1130DE029F42F7EB22E2AE030E025C0F22FF97FBD
S1130DF0BF2E8F36C1F018F4883579F0B4C080372F
S1130E0019F0883721F0AFC02F2F2061B22EB4FE25
S1130E100DC08B2D8460B82E09C024FF0AC09F2FFB
S1130E209660B92E06C028E030E005C020E130E02D
S1130E3002C020E132E0F801B7FE07C06081718191
S1130E40828193810C5F1F4F06C06081718180E0B5
S1130E5090E00E5F1F4FA4010E942808A82EA81836
S1130E60FB2DFF77BF2EB6FE0BC02B2D2E7FA514B6
S1130E7050F4B4FE0AC0B2FC08C02B2D2E7E05C06F
S1130E807A2C2B2D03C07A2C01C0752C24FF0DC0A5
S1130E90FE01EA0DF11D8081803311F4297E09C021
S1130EA022FF06C07394739404C0822F867809F0DD
S1130EB0739423FD13C020FF06C05A2C731418F436
S1130EC0530C5718732C731468F4B70180E290E044
S1130ED02C870E94F60773942C85F5CF731410F4B5
S1130EE0371801C0312C24FF12C0B70180E390E011
S1130EF02C870E94F6072C8522FF17C021FF03C010
S1130F0088E590E002C088E790E0B7010CC0822F2A
S1130F10867859F021FD02C080E201C08BE227FDF2
S1130F208DE2B70190E00E94F607A51438F4B701EA
S1130F3080E390E00E94F6075A94F7CFAA94F40154
S1130F40EA0DF11D8081B70190E00E94F607A1101F
S1130F50F5CF332009F451CEB70180E290E00E942E
S1130F60F6073A94F6CFF7018681978102C08FEF96
S1130F709FEF2C96E2E10C94A2080F931F93CF935A
S1130F80DF93869F8001879F100D969F100D11247B
S1130F90C8010E943804EC01009729F0A80160E020
S1130FA070E00E94E407CE01DF91CF911F910F9171
S1130FB00895FC010590615070400110D8F78095A8
S1130FC090958E0F9F1F0895DC0101C06D934150D1
S1130FD05040E0F70895FC01615070400190011009
S1130FE0D8F7809590958E0F9F1F08950F931F93A8
S1130FF0CF93DF93182F092FEB018B8181FD03C061
S11310008FEF9FEF20C082FF10C04E815F812C8143
S11310103D81421753077CF4E881F9819F012F5FDA
S11310203F4F39832883108306C0E885F985812FD3
S11310300995892B29F72E813F812F5F3F4F3F83ED
S11310402E83812F902FDF91CF911F910F910895BF
S1131050FA01AA27283051F1203181F1E8946F93E5
S11310606E7F6E5F7F4F8F4F9F4FAF4FB1E03ED08B
S1131070B4E03CD0670F781F891F9A1FA11D680F29
S1131080791F8A1F911DA11D6A0F711D811D911D5C
S1131090A11D20D009F468943F912AE0269F1124D1
S11310A03019305D3193DEF6CF010895462F477035
S11310B0405D4193B3E00FD0C9F7F6CF462F4F7090
S11310C0405D4A3318F0495D31FD4052419302D0EE
S11310D0A9F7EACFB4E0A695979587957795679594
S11310E0BA95C9F700976105710508959B01AC0194
S11310F00A2E06945795479537952795BA95C9F7BB
S1131100620F731F841F951FA01D08952F923F9295
S11311104F925F926F927F928F929F92AF92BF9203
S1131120CF92DF92EF92FF920F931F93CF93DF93AF
S1131130CDB7DEB7CA1BDB0B0FB6F894DEBF0FBE0C
S1131140CDBF09942A88398848885F846E847D8459
S11311508C849B84AA84B984C884DF80EE80FD805B
S11311600C811B81AA81B981CE0FD11D0FB6F894D1
S1111170DEBF0FBECDBFED010895F894FFCF92
S113117E0000B0012000593A2020202025692020AB
S113118E20202569200A004E65772067616D650071
S113119E4869676873636F7265004F7074696F6E28
S11311AE7300437265646974730045617379004E0C
S11311BE6F726D616C00486172640044616E6965A2
S11311CE6C20546176616B6F6C6920202020202086
S11311DE202020204E69636F6C617320436172621C
S11311EE6F6E652020202020202020202042796749
S11311FE6765726E20417574756D6E2032303137AD
S111120E005452554520003C2D2D002569004A
S9030000FC
