S00C00006C6162312E73726563B8
S11300000C942D010C944A010C944A010C94AB03FA
S11300100C944A010C944A010C944A010C944A0130
S11300200C944A010C944A010C944A010C944A0120
S11300300C944A010C944A010C944A010C944A0110
S11300400C944A010C944A010C944A010C944A0100
S11300500C944A010C944A010C944A010C944A01F0
S11300600C944A010C944A010C944A010C944A01E0
S1130070000000000000005F0000000700070014FB
S11300807F147F14242A7F2A1223130864623649BA
S11300905522500005030000001C224100004122AB
S11300A01C00082A1C2A0808083E080800503000D2
S11300B00008080808080060600000201008040216
S11300C03E5149453E00427F40004261514946212C
S11300D041454B311814127F1027454545393C4A98
S11300E049493001710905033649494936064949E8
S11300F0291E00363600000056360000000814227F
S11301004114141414144122140800020151090664
S1130110324979413E7E1111117E7F494949363E6B
S1130120414141227F4141221C7F494949417F0984
S11301300901013E414151327F0808087F00417F97
S113014041002040413F017F081422417F4040404C
S1130150407F0204027F7F0408107F3E4141413EFC
S11301607F090909063E4151215E7F091929464646
S11301704949493101017F01013F4040403F1F206F
S113018040201F7F2018207F631408146303047821
S11301900403615149454300007F414102040810B2
S11301A02041417F000004020102044040404040DD
S11301B0000102040020545454787F4844443838E1
S11301C044444420384444487F3854545418087EE6
S11301D0090102081454543C7F0804047800447D47
S11301E040002040443D00007F10284400417F40EF
S11301F0007C041804787C080404783844444438A7
S11302007C14141408081414187C7C08040408488A
S113021054545420043F4440203C4040207C1C2043
S113022040201C3C4030403C44281028440C505092
S1130230503C4464544C44000836410000007F00A4
S113024000004136080002010302017E117F515172
S11302502454785458102720271011241FBECFEFA0
S1130260D4E0DEBFCDBF12E0A0E0B1E0E6E5F7E107
S113027002C005900D92AA32B107D9F722E0AAE292
S1130280B2E001C01D92A234B207E1F70E9422033A
S11302900C94A90B0C940000309808958C5F809303
S11302A0001482E58A95F1F7809100140895B898B6
S11302B0B998BA98C29AF89486B78E7F86BF8BB7DE
S11302C080628BBF789408950E94E50343E063E065
S11302D08BE20E94090460E080E20E94CD0360E0AA
S11302E081E20E94CD0360E084E20E94CD0360E0DD
S11302F085E20E94CD0340E460EE8FE00E94090491
S11303000895EF92FF920F931F93CF93DF937C0195
S113031080E30E94BF0383FDFBCFF70160816295F8
S1130320660F607E82E30E94CD03F70160817181D4
S113033076956795769567957695679581E30E949E
S1130340CD03F701628585E30E94CD03F701828521
S1130350893018F481110AC01CC086E091E09F9393
S11303608F930E9496080F900F9017C087010E5F1D
S11303701F4FC0E0D0E0F80161918F018C2F8A5C9F
S11303800E94CD032196F701228530E0C217D307DE
S113039094F380E090E00E94F703DF91CF911F91E6
S11303A00F91FF90EF9008958F929F92AF92BF921A
S11303B0CF92DF92EF92FF920F931F93CF93DF932D
S11303C0CDB7DEB72B970FB6F894DEBF0FBECDBF07
S11303D07C011B828CE20E94BF0380FF4DC081E63A
S11303E00E94BF03082F10E082E60E94BF0390E042
S11303F05801AA0CBB1CAA0CBB1CAA0CBB1C9695CE
S11304008795929582958F7089279F708927A82A4E
S1130410B92A85E60E94BF03882E88E0881518F063
S1130420811015C02CC08EE191E09F938F930E94A0
S113043096081A8219821B868BE0FE013196D70139
S113044001900D928A95E1F70F900F9023C08E01D1
S11304500D5F1F4F6801C80CD11C0F2EF6E69F2EAE
S1130460F02D892D0E94BF03F80181938F0193948D
S1130470EC15FD05B1F703C0812CA12CB12CBA8277
S1130480A9828B868BE0FE013196D70101900D92F3
S11304908A95E1F7C7012B960FB6F894DEBF0FBE1D
S11304A0CDBFDF91CF911F910F91FF90EF90DF901F
S11304B0CF90BF90AF909F908F90089585B780683C
S11304C085BF80B7806280BF08959C012D5131099A
S11304D0273C310548F031E020E0843E91050CF4DE
S11304E030E0832F922F089584E090E008959C01DA
S11304F0295031092F3E310530F0883F910534F001
S113050083E090E0089584E090E0089582E090E034
S113051008950F931F93CF93DF9381E090E00E949F
S11305204E010E947702EC0180E090E00E944E01AF
S11305300E9465028C0180912E0290912F028C17EB
S11305409D0721F00E94EC059E010BC080912C02B6
S113055090912D028017910709F456C00E94EC0572
S113056098012130310551F11CF4232BD1F14FC0F6
S11305702230310521F02330310589F048C0E09163
S11305803002F091310282819381009709F442C0D4
S1130590909331028093300281E090E046C0E09174
S11305A03002F0913102848195810097B1F19093EA
S11305B031028093300281E090E037C0E091300254
S11305C0F091310286819781009751F19093310225
S11305D080933002909335028093340281E090E05E
S11305E024C0E0913002F09131028085918500971A
S11305F0D1F090933102809330029093350280932E
S1130600340281E090E011C080E090E00EC081E00F
S113061090E00BC081E090E008C081E090E005C06C
S113062081E090E002C081E090E0D0932F02C0937B
S11306302E0210932D0200932C02DF91CF911F9173
S11306400F910895CF93DF93CDB7DEB766970FB6BA
S1130650F894DEBF0FBECDBF8FE190E00E94190772
S11306600E945E020E9457010E944C010E940506EE
S11306700E94EC050E9421040E94640185E090E040
S11306809A83898388E08B8783E58B838BE48C83CF
S113069082E58D838E838F83888781E489878A8727
S11306A087E391E00E94AA080AE311E00F2EF6E026
S11306B0EF2EF12CF02DCE0101960E948101809144
S11306C02A0290912B02892BE1F140E061E08CE257
S11306D00E940904CE010C960E94D4018D891F92B8
S11306E08F938C891F928F938B891F928F938A8902
S11306F01F928F9389891F928F9388891F928F935A
S11307008F851F928F938E851F928F938E891F9250
S11307108F938D858F938C858F931F930F930E9456
S1130720960840E061E08CE20E94090410922B02DA
S113073010922A02FA82E9820FB6F894DEBF0FBE45
S1130740CDBF0E948902892B09F4B5CF0E94790597
S11307500E94BE05B0CF1F920F920FB60F921124C4
S11307608F939F9381E090E090932B0280932A02D1
S11307709F918F910F900FBE0F901F901895CF935C
S1130780C82FC49883E00E9440068C2F0E94400624
S11307900E944406C49ACF910895CF93DF93D82F33
S11307A0C62FC49882E00E9440068D2F0E94400606
S11307B08C2F0E944006C49ADF91CF910895C4986B
S11307C080EC0E944006C49A08950E9437060E9455
S11307D0DF038DE08A95F1F700008EE00E94BF03ED
S11307E0982F907E81E0903809F480E00895C498B1
S11307F0009721F481E80E94400609C0019721F482
S113080082E80E94400603C084E80E944006C49A1D
S113081008951F93CF93DF93182FD62FC42FC49816
S113082085E00E944006812F0E9440068D2F0E9481
S113083040068C2F0E944006C49ADF91CF911F91ED
S113084008952F923F924F925F926F927F928F9270
S11308509F92AF92BF92CF92DF92EF92FF920F934B
S11308601F93CF93DF9300D000D000D0CDB7DEB775
S11308708AE090E00E9424079E838D838AE090E0C2
S11308800E9424074C018AE090E00E9424075C0146
S11308908AE090E00E9424079A8389838AE090E0AA
S11308A00E9424076C018AE090E00E9424078C01D6
S11308B08AE090E00E9424077C018AE090E00E9494
S11308C024072C018AE090E00E9424079C838B83F8
S11308D08AE090E00E9424073C018AE090E00E94B4
S11308E024071C018AE090E00E9424079C01909355
S11308F03302809332028D819E81909335028093DE
S11309003402909331028093300286E891E0AD8105
S1130910BE8111969C938E9315961C921E921497E9
S11309201396DC92CE92129717969C928E921697FB
S113093019961C921E9218978FE891E0F401918306
S1130940808315821482B382A28217821682B187B1
S1130950A08784E991E0D50111969C938E93159616
S11309609C928E921497E981FA811396FC93EE93EC
S1130970129717961C921E9216978D819E81199636
S11309809C938E9318978BE991E091838083B58231
S1130990A4821382128217821682AD81BE81B1872E
S11309A0A08780EA91E0F60191838083B583A483D4
S11309B01383028317821682118610868AEA91E0D5
S11309C0D80111969C938E931596DC92CE9214972F
S11309D013963C922E92129717967C926E921697CB
S11309E019961C921E92189782EB91E0F301918361
S11309F0808315821482F382E28217821682118721
S1130A0000878EEB91E0D70111969C938E931596F7
S1130A107C926E92149713961C921E9212971796BC
S1130A205C924E92169719961C930E93189784EC29
S1130A3091E0F20191838083158214828B819C81E1
S1130A409383828317821682F186E0868DEC91E08F
S1130A50AB81BC8111969C938E9315965C924E92B9
S1130A60149713961C921E92129717961C921E921C
S1130A7016971996FC92EE92189787ED91E0F10182
S1130A8091838083158304831382128237832683A0
S1130A90118610868FED91E0D90111969C938E9367
S1130AA015961C921E92149713961C921E921297DE
S1130AB017961C921E92169719963C922E9218978E
S1130AC026960FB6F894DEBF0FBECDBFDF91CF914F
S1130AD01F910F91FF90EF90DF90CF90BF90AF9058
S1130AE09F908F907F906F905F904F903F902F904A
S1130AF008951F93CF93DF93C0913402D0913502B0
S1130B008C819D81009711F0EC01FACF209709F1B7
S1130B1010E080913002909131028C179D0769F4A6
S1130B2020913202309133028217930731F040E072
S1130B30612F85E292E00E94BE0644E1612F888124
S1130B4099810E94BE060A80DB81C02D1F5F209719
S1130B5001F7DF91CF911F910895982F9F70E0E0E6
S1130B60F0E1908382958F70805F80830895805533
S1130B7080930010862F0E94AD050895DF92EF92B6
S1130B80FF920F931F93CF93DF9300E010E0F12CBB
S1130B90D12CE12CC0E0D2E160E08F2D0E94B7059A
S1130BA02D2D3E2DA801585EFA01E20FF31F90810E
S1130BB098832F5F3F4F20383105B1F7F3940058E5
S1130BC01F4F88E0F812E8CFDF91CF911F910F916A
S1130BD0FF90EF90DF9008951F93CF93DF9310E081
S1130BE0D0E0812F0E945606CD2F8C2F0E945906EB
S1130BF08D2F0E944906CF5FC038B9F71F5F1830A8
S1130C0081F7DF91CF911F910895E0E0F0E18EEA42
S1130C10808381EA80838AED808382E1808388EC0B
S1130C20808388EA80838FE3808385ED808380E8F6
S1130C30808381E8808380E5808389ED808381E2FD
S1130C40808380E2808382E080838BED808380E3F5
S1130C5080838DEA8083108284EA808386EA80839D
S1130C608FEA80831092360210923702089587B378
S1130C70806A87BBBE9881E58DB9BC9AC49A0895F1
S1130C808FB9779BFECF089580E00E9440068FB114
S1130C90089590913602E0913702F0E020E8929FA7
S1130CA0E00DF11D1124F85E8083089580933602CF
S1130CB00895809337020895CF92DF92EF92FF92C6
S1130CC00F931F93CF93DF93082F10E0CBE4D2E070
S1130CD0C80180977C01EE0CFF1CEE0CFF1C8E0DEE
S1130CE09F1D9C0120593F4F79010F2EF0E5CF2E17
S1130CF0F2E0DF2EF02D063C110551F4FE01849143
S1130D000E944906809137028F5F8093370225C085
S1130D10063E110559F4FE01359684910E94490658
S1130D20809137028F5F8093370217C0083A11050C
S1130D3059F4FE013A9684910E9449068091370243
S1130D408F5F8093370209C0F70184910E9449069E
S1130D50809137028F5F809337022196FFEFEF1A5D
S1130D60FF0ACC15DD0509F0C6CFDF91CF911F91A5
S1130D700F91FF90EF90DF90CF9008958F929F9204
S1130D80AF92BF92CF92DF92EF92FF920F931F9395
S1130D90CF93DF937C016093360240933702009136
S1130DA0370210E06C01C0E0D0E0A12CB12C812C02
S1130DB0912C20C0CE01880F991F880F991F8C0F8A
S1130DC09D1F800F911F8C3791055CF08091360236
S1130DD08F5F8093360210923702C82DD92D082DCB
S1130DE0192D2196F60181916F010E945C06FFEF97
S1130DF0AF1ABF0AF70101900020E9F73197EE1905
S1130E00FF09AE16BF06B0F2DF91CF911F910F918B
S1130E10FF90EF90DF90CF90BF90AF909F908F9016
S1130E2008955D9BFECF8CB908955F9BFECF8CB176
S1130E30089590BD89B988E18AB965E177E081E1D7
S1130E4097E00E944B080895CF93DF938230910579
S1130E5010F482E090E0E0913A02F0913B0220E04D
S1130E6030E0A0E0B0E0309739F14081518148177B
S1130E705907B8F04817590771F482819381109784
S1130E8029F013969C938E9312972CC090933B0257
S1130E9080933A0227C02115310531F042175307D8
S1130EA018F0A901DB0101C0EF019A01BD01DF01C6
S1130EB00280F381E02DD7CF21153105F9F0281BED
S1130EC0390B2430310580F48A819B8161157105C9
S1130ED021F0FB019383828304C090933B028093AF
S1130EE03A02FE01329644C0FE01E20FF31F8193E1
S1130EF0919322503109398328833AC020913802D2
S1130F0030913902232B41F42091020130910301E5
S1130F10309339022093380220910001309101016D
S1130F202115310541F42DB73EB74091040150918C
S1130F300501241B350BE0913802F0913902E217C8
S1130F40F307A0F42E1B3F0B2817390778F0AC01E8
S1130F504E5F5F4F2417350748F04E0F5F1F5093C5
S1130F603902409338028193919302C0E0E0F0E0AB
S1130F70CF01DF91CF910895CF93DF93009709F4C8
S1130F8087C0FC01329713821282C0913A02D09139
S1130F903B02209781F420813181280F391F8091F1
S1130FA03802909139028217930779F5F093390248
S1130FB0E09338026DC0DE0120E030E0AE17BF07D9
S1130FC050F412964D915C9113979D014115510572
S1130FD009F1DA01F3CFB383A28340815181840FF5
S1130FE0951F8A179B0771F48D919C911197840F1B
S1130FF0951F02969183808312968D919C911397ED
S1131000938382832115310529F4F0933B02E09305
S11310103A023EC0D9011396FC93EE9312974D9178
S11310205D91A40FB51FEA17FB0779F480819181C4
S1131030840F951F0296D90111969C938E938281F9
S1131040938113969C938E931297E0E0F0E08A814B
S11310509B81009719F0FE01EC01F9CFCE010296B5
S113106028813981820F931F2091380230913902EF
S11310702817390769F4309729F410923B0210922B
S11310803A0202C013821282D0933902C09338020A
S1131090DF91CF9108950F931F93CF93DF93EC01CA
S11310A08B01009731F46115710519F480E090E02B
S11310B038C06EE070E081E090E00E94A90AFC0173
S11310C00097A1F380E883830115110571F013875C
S11310D0028781E8838380913C0290913D02892BB1
S11310E021F4F0933D02E0933C022097C9F0D187AC
S11310F0C08783818260838380913E0290913F0206
S1131100892B71F4F0933F02E0933E0280914002F8
S113111090914102892B21F4F0934102E093400223
S1131120CF01DF91CF911F910F910895A0E0B0E01E
S1131130ECE9F8E00C94820BFE0135966191719113
S1131140AF0180913E0290913F020E94D708E2E0F5
S11311500C949E0B0F931F93CF93DF93E0913E0269
S1131160F0913F02238121FF1BC0EC0100E010E05D
S1131170899160913E0270913F02DB011896ED91D6
S1131180FC911997882331F00995892B89F30FEF86
S11311901FEFEECF8AE00995892B11F4C80102C034
S11311A08FEF9FEFDF91CF911F910F910895ACE0E6
S11311B0B0E0EDEDF8E00C94720B7C016B018A0158
S11311C0FC0117821682838181FFBDC1CE01019685
S11311D04C01F7019381F60193FD859193FF819171
S11311E06F01882309F4ABC1853239F493FD8591ED
S11311F093FF81916F01853229F4B70190E00E9439
S1131200E20AE7CF512C312C20E02032A0F48B32BB
S113121069F030F4803259F0833269F420612CC0D3
S11312208D3239F0803339F4216026C02260246085
S113123023C0286021C027FD27C030ED380F3A3085
S113124078F426FF06C0FAE05F9E300D1124532E79
S113125013C08AE0389E300D1124332E20620CC056
S11312608E3221F426FD6BC1206406C08C3611F445
S1131270206802C0883641F4F60193FD859193FFFE
S113128081916F018111C1CF982F9F7D9554933027
S113129028F40C5F1F4FFFE3F9830DC0833631F050
S11312A0833771F0833509F05BC022C0F801808177
S11312B089830E5F1F4F44244394512C540115C05D
S11312C03801F2E06F0E711CF801A080B18026FF96
S11312D003C0652D70E002C06FEF7FEFC5012C875E
S11312E00E94D70A2C0183012C852F77222E17C048
S11312F03801F2E06F0E711CF801A080B18026FF66
S113130003C0652D70E002C06FEF7FEFC5012C872D
S11313100E94C50A2C012C852068222E830123FCFF
S11313201BC0832D90E048165906B0F4B70180E243
S113133090E00E94E20A3A94F4CFF50127FC8591EB
S113134027FE81915F01B70190E00E94E20A31100B
S11313503A94F1E04F1A51084114510471F7E5C071
S1131360843611F0893639F5F80127FF07C060810A
S11313707181828193810C5F1F4F08C060817181EC
S1131380882777FD8095982F0E5F1F4F2F76B22EFA
S113139097FF09C090958095709561957F4F8F4F09
S11313A09F4F2068B22E2AE030E0A4010E94140B63
S11313B0A82EA81844C0853729F42F7EB22E2AE01F
S11313C030E025C0F22FF97FBF2E8F36C1F018F41C
S11313D0883579F0B4C0803719F0883721F0AFC070
S11313E02F2F2061B22EB4FE0DC08B2D8460B82E39
S11313F009C024FF0AC09F2F9660B92E06C028E0BA
S113140030E005C020E130E002C020E132E0F80124
S1131410B7FE07C060817181828193810C5F1F4F89
S113142006C06081718180E090E00E5F1F4FA401CF
S11314300E94140BA82EA818FB2DFF77BF2EB6FE12
S11314400BC02B2D2E7FA51450F4B4FE0AC0B2FCA1
S113145008C02B2D2E7E05C07A2C2B2D03C07A2C90
S113146001C0752C24FF0DC0FE01EA0DF11D808121
S1131470803311F4297E09C022FF06C0739473944B
S113148004C0822F867809F0739423FD13C020FFD3
S113149006C05A2C731418F4530C5718732C731475
S11314A068F4B70180E290E02C870E94E20A73940A
S11314B02C85F5CF731410F4371801C0312C24FF98
S11314C012C0B70180E390E02C870E94E20A2C85C9
S11314D022FF17C021FF03C088E590E002C088E71F
S11314E090E0B7010CC0822F867859F021FD02C02C
S11314F080E201C08BE227FD8DE2B70190E00E94FB
S1131500E20AA51438F4B70180E390E00E94E20AED
S11315105A94F7CFAA94F401EA0DF11D8081B70122
S113152090E00E94E20AA110F5CF332009F451CED5
S1131530B70180E290E00E94E20A3A94F6CFF70104
S11315408681978102C08FEF9FEF2C96E2E10C9485
S11315508E0B0F931F93CF93DF93869F8001879FFA
S1131560100D969F100D1124C8010E942407EC0150
S1131570009729F0A80160E070E00E94D00ACE0133
S1131580DF91CF911F910F910895FC010590615057
S113159070400110D8F7809590958E0F9F1F089585
S11315A0DC0101C06D9341505040E0F70895FC0107
S11315B06150704001900110D8F7809590958E0F7E
S11315C09F1F08950F931F93CF93DF93182F092F15
S11315D0EB018B8181FD03C08FEF9FEF20C082FF61
S11315E010C04E815F812C813D81421753077CF4EA
S11315F0E881F9819F012F5F3F4F3983288310834E
S113160006C0E885F985812F0995892B29F72E8154
S11316103F812F5F3F4F3F832E83812F902FDF9198
S1131620CF911F910F910895FA01AA27283051F103
S1131630203181F1E8946F936E7F6E5F7F4F8F4FFF
S11316409F4FAF4FB1E03ED0B4E03CD0670F781F5E
S1131650891F9A1FA11D680F791F8A1F911DA11D43
S11316606A0F711D811D911DA11D20D009F468947C
S11316703F912AE0269F11243019305D3193DEF624
S1131680CF010895462F4770405D4193B3E00FD0DA
S1131690C9F7F6CF462F4F70405D4A3318F0495DC5
S11316A031FD4052419302D0A9F7EACFB4E0A695A8
S11316B09795879577956795BA95C9F700976105CA
S11316C0710508959B01AC010A2E06945795479520
S11316D037952795BA95C9F7620F731F841F951F15
S11316E0A01D08952F923F924F925F926F927F9226
S11316F08F929F92AF92BF92CF92DF92EF92FF921E
S11317000F931F93CF93DF93CDB7DEB7CA1BDB0BC9
S11317100FB6F894DEBF0FBECDBF09942A8839886E
S113172048885F846E847D848C849B84AA84B98475
S1131730C884DF80EE80FD800C811B81AA81B98181
S1131740CE0FD11D0FB6F894DEBF0FBECDBFED0195
S10917500895F894FFCF98
S11317560000420220004C656E677468206F6620A4
S11317666461746120746F6F206269672E004C6532
S11317766E677468203E20382C206E6F7420616C6E
S11317866C6F7765642E004E590049443A202569EA
S113179620204C454E4754483A20256920202041B4
S11317A64C4C2044415441202025632020202025F0
S11317B6632020202563202020202563202020204C
S11317C62563202020202563202020202563202037
S11317D6202025630A004E65772047616D65004524
S11317E6617379004E6F726D616C004861726400BA
S11317F64869676873636F7265004F7074696F6ECA
S1131806730053656E736974697669747900536FEE
S1131816756E6400536F756E64206F6E00536F753A
S11318266E64206F6666004372656469747300446F
S1131836616E69656C20546176616B6F6C692020FA
S113184620202020202020204E69636F6C617320A5
S1131856436172626F6E65202020202020202020A4
S1131866204279676765726E20417574756D6E20C6
S10D187632303137002D2D3E000002
S9030000FC
