:100000000C942D010C944A010C944A010C94270382
:100010000C944A010C944A010C944A010C944A0134
:100020000C944A010C944A010C944A010C944A0124
:100030000C944A010C944A010C944A010C944A0114
:100040000C944A010C944A010C944A010C944A0104
:100050000C944A010C944A010C944A010C944A01F4
:100060000C944A010C944A010C944A010C944A01E4
:10007000000000000000005F0000000700070014FF
:100080007F147F14242A7F2A1223130864623649BE
:100090005522500005030000001C224100004122AF
:1000A0001C00082A1C2A0808083E080800503000D6
:1000B000000808080808006060000020100804021A
:1000C0003E5149453E00427F400042615149462130
:1000D00041454B311814127F1027454545393C4A9C
:1000E00049493001710905033649494936064949EC
:1000F000291E003636000000563600000008142283
:100100004114141414144122140800020151090668
:10011000324979413E7E1111117E7F494949363E6F
:10012000414141227F4141221C7F494949417F0988
:100130000901013E414151327F0808087F00417F9B
:1001400041002040413F017F081422417F40404050
:10015000407F0204027F7F0408107F3E4141413E00
:100160007F090909063E4151215E7F09192946464A
:100170004949493101017F01013F4040403F1F2073
:1001800040201F7F2018207F631408146303047825
:100190000403615149454300007F414102040810B6
:1001A0002041417F000004020102044040404040E1
:1001B000000102040020545454787F4844443838E5
:1001C00044444420384444487F3854545418087EEA
:1001D000090102081454543C7F0804047800447D4B
:1001E00040002040443D00007F10284400417F40F3
:1001F000007C041804787C080404783844444438AB
:100200007C14141408081414187C7C08040408488E
:1002100054545420043F4440203C4040207C1C2047
:1002200040201C3C4030403C44281028440C505096
:10023000503C4464544C44000836410000007F00A8
:1002400000004136080002010302017E117F515176
:100250002454785458102720271011241FBECFEFA4
:10026000D4E0DEBFCDBF12E0A0E0B1E0E6E1F7E10F
:1002700002C005900D92A230B107D9F722E0A2E0AA
:10028000B2E001C01D92AA31B207E1F70E943B0320
:100290000C94890B0C940000309808958C5F809327
:1002A000001482E58A95F1F7809100140895B898BA
:1002B000B998BA98C29AF89486B78E7F86BF8BB7E2
:1002C00080628BBF789408950E94C50343E063E089
:1002D0008BE20E94E90360E080E20E94AD0360E0EF
:1002E00081E20E94AD0360E084E20E94AD0360E021
:1002F00085E20E94AD0340E460EE8FE00E94E903D6
:100300000895CF92DF92EF92FF920F931F93CF93B6
:10031000DF93EC01C62ED72E142F04C086E091E0A7
:100320000E948A0880E30E949F0383FDF7CF6C2F11
:100330006295660F607E82E30E94AD03BE017695F2
:100340006795769567957695679581E30E94AD03ED
:10035000612F85E30E94AD03193030F4E12EF12CBA
:100360001E141F0454F018C08EE091E09F938F93E9
:100370000E9476080F900F9013C00C2D1D2DC0E029
:10038000D0E0F80161918F018C2F8A5C0E94AD034F
:100390002196CE15DF05ACF380E090E00E94D703F4
:1003A000DF91CF911F910F91FF90EF90DF90CF9051
:1003B00008958F929F92AF92BF92CF92DF92EF9269
:1003C000FF920F931F93CF93DF93CDB7DEB72B9799
:1003D0000FB6F894DEBF0FBECDBF7C011B828CE24E
:1003E0000E949F0380FF4DC081E60E949F03082F5B
:1003F00010E082E60E949F0390E05801AA0CBB1C0B
:10040000AA0CBB1CAA0CBB1C96958795929582954D
:100410008F7089279F708927A82AB92A85E60E94AC
:100420009F03882E88E0881518F0811015C02CC015
:1004300086E291E09F938F930E9476081A82198238
:100440001B868BE0FE013196D70101900D928A95B3
:10045000E1F70F900F9023C08E010D5F1F4F6801D1
:10046000C80CD11C0F2EF6E69F2EF02D892D0E9470
:100470009F03F80181938F019394EC15FD05B1F76B
:1004800003C0812CA12CB12CBA82A9828B868BE06F
:10049000FE013196D70101900D928A95E1F7C701CF
:1004A0002B960FB6F894DEBF0FBECDBFDF91CF9174
:1004B0001F910F91FF90EF90DF90CF90BF90AF9082
:1004C0009F908F90089585B7806885BF80B78062C0
:1004D00080BF08959C012D513109273C310548F01A
:1004E00031E020E0843E91050CF430E0832F922F20
:1004F000089584E090E008959C01295031092F3E31
:10050000310530F0883F910534F083E090E00895A4
:1005100084E090E0089582E090E008950F931F93A7
:10052000CF93DF9381E090E00E944E010E947C0215
:10053000EC0180E090E00E944E010E946A028C0172
:1005400080910602909107028C179D0721F00E946E
:10055000CC059E010BC0809104029091050280178A
:10056000910709F456C00E94CC059801213031054D
:1005700051F11CF4232BD1F14FC02230310521F071
:100580002330310589F048C0E0910802F09109025A
:1005900082819381009709F442C09093090280936D
:1005A000080281E090E046C0E0910802F091090263
:1005B000848195810097B1F190930902809308029C
:1005C00081E090E037C0E0910802F0910902868155
:1005D0009781009751F190930902809308029093BC
:1005E0000D0280930C0281E090E024C0E0910802AB
:1005F000F0910902808591850097D1F090930902CE
:100600008093080290930D0280930C0281E090E0A9
:1006100011C080E090E00EC081E090E00BC081E06E
:1006200090E008C081E090E005C081E090E002C069
:1006300081E090E0D0930702C09306021093050278
:1006400000930402DF91CF911F910F9108951F92A3
:100650000F920FB60F9211248F939F9381E090E039
:1006600090930302809302029F918F910F900FBE8F
:100670000F901F901895CF93DF93CDB7DEB7669795
:100680000FB6F894DEBF0FBECDBF8FE190E00E94A1
:10069000F9060E9463020E9457010E944C010E94C9
:1006A000E5050E94CC050E9401040E94640105E05A
:1006B00010E0DD24D3940F2EF1E5CF2EF02D0F2E78
:1006C000FFE3EF2EF1E0FF2EF02D1D870C87DE8A71
:1006D000CE864D2DBE01625F7F4FC8010E94810111
:1006E0008091020290910302892B01F1CE010196C3
:1006F0000E94D90140E06D2D8CE20E94E903109226
:100700000302109202028B811F928F938B851F929E
:100710008F938A818F9389818F93FF92EF920E94AA
:1007200076080FB6F894DEBF0FBECDBF0E948E02D2
:10073000892B59F20E9459050E949E05C6CFCF937E
:10074000C82FC49883E00E9420068C2F0E942006A8
:100750000E942406C49ACF910895CF93DF93D82F97
:10076000C62FC49882E00E9420068D2F0E9420068A
:100770008C2F0E942006C49ADF91CF910895C498CF
:1007800080EC0E942006C49A08950E9417060E94D9
:10079000BF038DE08A95F1F700008EE00E949F0371
:1007A000982F907E81E0903809F480E00895C498F5
:1007B000009721F481E80E94200609C0019721F4E6
:1007C00082E80E94200603C084E80E942006C49AA2
:1007D00008951F93CF93DF93182FD62FC42FC4985B
:1007E00085E00E942006812F0E9420068D2F0E9406
:1007F00020068C2F0E942006C49ADF91CF911F9172
:1008000008952F923F924F925F926F927F928F92B4
:100810009F92AF92BF92CF92DF92EF92FF920F938F
:100820001F93CF93DF9300D000D000D0CDB7DEB7B9
:100830008AE090E00E9404079E838D838AE090E026
:100840000E9404074C018AE090E00E9404075C01CA
:100850008AE090E00E9404079A8389838AE090E00E
:100860000E9404076C018AE090E00E9404078C015A
:100870008AE090E00E9404077C018AE090E00E94F8
:1008800004072C018AE090E00E9404079C838B837C
:100890008AE090E00E9404073C018AE090E00E9418
:1008A00004071C018AE090E00E9404079C019093D9
:1008B0000B0280930A028D819E8190930D0280939A
:1008C0000C0290930902809308028FE591E0AD81BC
:1008D000BE8111969C938E9315961C921E9214972E
:1008E0001396DC92CE92129717969C928E92169740
:1008F00019961C921E92189788E691E0F401918354
:10090000808315821482B382A28217821682B187F5
:10091000A0878DE691E0D50111969C938E93159654
:100920009C928E921497E981FA811396FC93EE9330
:10093000129717961C921E9216978D819E8119967A
:100940009C938E93189784E791E091838083B5827E
:10095000A4821382128217821682AD81BE81B18772
:10096000A08789E791E0F60191838083B583A48312
:1009700013830283178216821186108683E891E022
:10098000D80111969C938E931596DC92CE92149773
:1009900013963C922E92129717967C926E9216970F
:1009A00019961C921E9218978BE891E0F30191839F
:1009B000808315821482F382E28217821682118765
:1009C000008787E991E0D70111969C938E93159645
:1009D0007C926E92149713961C921E921297179601
:1009E0005C924E92169719961C930E9318978DE968
:1009F00091E0F20191838083158214828B819C8126
:100A00009383828317821682F186E08686EA91E0DC
:100A1000AB81BC8111969C938E9315965C924E92FD
:100A2000149713961C921E92129717961C921E9260
:100A300016971996FC92EE92189780EB91E0F101CF
:100A400091838083158304831382128237832683E4
:100A50001186108688EB91E0D90111969C938E93B4
:100A600015961C921E92149713961C921E92129722
:100A700017961C921E92169719963C922E921897D2
:100A800026960FB6F894DEBF0FBECDBFDF91CF9193
:100A90001F910F91FF90EF90DF90CF90BF90AF909C
:100AA0009F908F907F906F905F904F903F902F908E
:100AB00008951F93CF93DF93C0910C02D0910D0244
:100AC0008C819D81009711F0EC01FACF209709F1FC
:100AD00010E080910802909109028C179D0769F43B
:100AE00020910A0230910B028217930731F040E007
:100AF000612F8EEF91E00E949E0644E1612F888174
:100B000099810E949E060A80DB81C02D1F5F20977D
:100B100001F7DF91CF911F910895982F9F70E0E02A
:100B2000F0E1908382958F70805F80830895805577
:100B300080930010862F0E948D050895DF92EF921A
:100B4000FF920F931F93CF93DF9300E010E0F12CFF
:100B5000D12CE12CC0E0D2E160E08F2D0E949705FE
:100B60002D2D3E2DA801585EFA01E20FF31F908152
:100B700098832F5F3F4F20383105B1F7F394005829
:100B80001F4F88E0F812E8CFDF91CF911F910F91AE
:100B9000FF90EF90DF9008951F93CF93DF9310E0C5
:100BA000D0E0812F0E943606CD2F8C2F0E9439066F
:100BB0008D2F0E942906CF5FC038B9F71F5F18300C
:100BC00081F7DF91CF911F910895E0E0F0E18EEA87
:100BD000808381EA80838AED808382E1808388EC50
:100BE000808388EA80838FE3808385ED808380E83B
:100BF000808381E8808380E5808389ED808381E242
:100C0000808380E2808382E080838BED808380E339
:100C100080838DEA8083108284EA808386EA8083E1
:100C20008FEA808310920E0210920F02089587B30C
:100C3000806A87BBBE9881E58DB9BC9AC49A089535
:100C40008FB9779BFECF089580E00E9420068FB178
:100C5000089590910E02E0910F02F0E020E8929F3B
:100C6000E00DF11D1124F85E8083089580930E023B
:100C7000089580930F020895CF92DF92EF92FF9232
:100C80000F931F93CF93DF93082F10E0CBE4D2E0B4
:100C9000C80180977C01EE0CFF1CEE0CFF1C8E0D32
:100CA0009F1D9C0120593F4F79010F2EF0E5CF2E5B
:100CB000F2E0DF2EF02D063C110551F4FE01849187
:100CC0000E94290680910F028F5F80930F0225C03A
:100CD000063E110559F4FE01359684910E942906BD
:100CE00080910F028F5F80930F0217C0083A1105A1
:100CF00059F4FE013A9684910E94290680910F02D0
:100D00008F5F80930F0209C0F70184910E9429062A
:100D100080910F028F5F80930F022196FFEFEF1AF1
:100D2000FF0ACC15DD0509F0C6CFDF91CF911F91E9
:100D30000F91FF90EF90DF90CF9008958F929F9248
:100D4000AF92BF92CF92DF92EF92FF920F931F93D9
:100D5000CF93DF937C0160930E0240930F020091CA
:100D60000F0210E06C01C0E0D0E0A12CB12C812C6E
:100D7000912C20C0CE01880F991F880F991F8C0FCE
:100D80009D1F800F911F8C3791055CF080910E02A2
:100D90008F5F80930E0210920F02C82DD92D082D5F
:100DA000192D2196F60181916F010E943C06FFEFFB
:100DB000AF1ABF0AF70101900020E9F73197EE1949
:100DC000FF09AE16BF06B0F2DF91CF911F910F91D0
:100DD000FF90EF90DF90CF90BF90AF909F908F905B
:100DE00008955D9BFECF8CB908955F9BFECF8CB1BB
:100DF000089590BD89B988E18AB965EF76E081EF01
:100E000096E00E942B080895CF93DF9382309105DE
:100E100010F482E090E0E0911202F091130220E0E1
:100E200030E0A0E0B0E0309739F1408151814817BF
:100E30005907B8F04817590771F4828193811097C8
:100E400029F013969C938E9312972CC090931302C3
:100E50008093120227C02115310531F04217530744
:100E600018F0A901DB0101C0EF019A01BD01DF010A
:100E70000280F381E02DD7CF21153105F9F0281B31
:100E8000390B2430310580F48A819B81611571050D
:100E900021F0FB019383828304C09093130280931B
:100EA0001202FE01329644C0FE01E20FF31F81934D
:100EB000919322503109398328833AC0209110023E
:100EC00030911102232B41F4209102013091030152
:100ED0003093110220931002209100013091010102
:100EE0002115310541F42DB73EB7409104015091D1
:100EF0000501241B350BE0911002F0911102E2175D
:100F0000F307A0F42E1B3F0B2817390778F0AC012C
:100F10004E5F5F4F2417350748F04E0F5F1F509309
:100F20001102409310028193919302C0E0E0F0E03F
:100F3000CF01DF91CF910895CF93DF93009709F40C
:100F400087C0FC01329713821282C0911202D091A5
:100F50001302209781F420813181280F391F80915D
:100F60001002909111028217930779F5F093110204
:100F7000E09310026DC0DE0120E030E0AE17BF0745
:100F800050F412964D915C9113979D0141155105B6
:100F900009F1DA01F3CFB383A28340815181840F39
:100FA000951F8A179B0771F48D919C911197840F5F
:100FB000951F02969183808312968D919C91139731
:100FC000938382832115310529F4F0931302E09372
:100FD00012023EC0D9011396FC93EE9312974D91E5
:100FE0005D91A40FB51FEA17FB0779F48081918109
:100FF000840F951F0296D90111969C938E9382813E
:10100000938113969C938E931297E0E0F0E08A818F
:101010009B81009719F0FE01EC01F9CFCE010296F9
:1010200028813981820F931F209110023091110283
:101030002817390769F4309729F410921302109297
:10104000120202C013821282D0931102C0931002C6
:10105000DF91CF9108950F931F93CF93DF93EC010E
:101060008B01009731F46115710519F480E090E06F
:1010700038C06EE070E081E090E00E94890AFC01D7
:101080000097A1F380E883830115110571F01387A0
:10109000028781E883838091140290911502892B45
:1010A00021F4F0931502E09314022097C9F0D18740
:1010B000C08783818260838380911602909117029A
:1010C000892B71F4F0931702E093160280911802B5
:1010D00090911902892B21F4F0931902E0931802E0
:1010E000CF01DF91CF911F910F910895A0E0B0E063
:1010F000ECE7F8E00C94620BFE013596619171917A
:10110000AF0180911602909117020E94B708E2E0A9
:101110000C947E0B0F931F93CF93DF93E0911602F5
:10112000F0911702238121FF1BC0EC0100E010E0C9
:1011300089916091160270911702DB011896ED916A
:10114000FC911997882331F00995892B89F30FEFCA
:101150001FEFEECF8AE00995892B11F4C80102C078
:101160008FEF9FEFDF91CF911F910F910895ACE02A
:10117000B0E0EDEBF8E00C94520B7C016B018A01BE
:10118000FC0117821682838181FFBDC1CE010196C9
:101190004C01F7019381F60193FD859193FF8191B5
:1011A0006F01882309F4ABC1853239F493FD859131
:1011B00093FF81916F01853229F4B70190E00E947D
:1011C000C20AE7CF512C312C20E02032A0F48B3220
:1011D00069F030F4803259F0833269F420612CC018
:1011E0008D3239F0803339F4216026C022602460CA
:1011F00023C0286021C027FD27C030ED380F3A30CA
:1012000078F426FF06C0FAE05F9E300D1124532EBD
:1012100013C08AE0389E300D1124332E20620CC09A
:101220008E3221F426FD6BC1206406C08C3611F489
:10123000206802C0883641F4F60193FD859193FF42
:1012400081916F018111C1CF982F9F7D955493306B
:1012500028F40C5F1F4FFFE3F9830DC0833631F094
:10126000833771F0833509F05BC022C0F8018081BB
:1012700089830E5F1F4F44244394512C540115C0A1
:101280003801F2E06F0E711CF801A080B18026FFDA
:1012900003C0652D70E002C06FEF7FEFC5012C87A2
:1012A0000E94B70A2C0183012C852F77222E17C0AC
:1012B0003801F2E06F0E711CF801A080B18026FFAA
:1012C00003C0652D70E002C06FEF7FEFC5012C8772
:1012D0000E94A50A2C012C852068222E830123FC64
:1012E0001BC0832D90E048165906B0F4B70180E288
:1012F00090E00E94C20A3A94F4CFF50127FC859150
:1013000027FE81915F01B70190E00E94C20A31106F
:101310003A94F1E04F1A51084114510471F7E5C0B5
:10132000843611F0893639F5F80127FF07C060814E
:101330007181828193810C5F1F4F08C06081718130
:10134000882777FD8095982F0E5F1F4F2F76B22E3E
:1013500097FF09C090958095709561957F4F8F4F4D
:101360009F4F2068B22E2AE030E0A4010E94F40AC8
:10137000A82EA81844C0853729F42F7EB22E2AE063
:1013800030E025C0F22FF97FBF2E8F36C1F018F460
:10139000883579F0B4C0803719F0883721F0AFC0B4
:1013A0002F2F2061B22EB4FE0DC08B2D8460B82E7D
:1013B00009C024FF0AC09F2F9660B92E06C028E0FE
:1013C00030E005C020E130E002C020E132E0F80169
:1013D000B7FE07C060817181828193810C5F1F4FCE
:1013E00006C06081718180E090E00E5F1F4FA40114
:1013F0000E94F40AA82EA818FB2DFF77BF2EB6FE78
:101400000BC02B2D2E7FA51450F4B4FE0AC0B2FCE5
:1014100008C02B2D2E7E05C07A2C2B2D03C07A2CD4
:1014200001C0752C24FF0DC0FE01EA0DF11D808165
:10143000803311F4297E09C022FF06C0739473948F
:1014400004C0822F867809F0739423FD13C020FF17
:1014500006C05A2C731418F4530C5718732C7314B9
:1014600068F4B70180E290E02C870E94C20A73946E
:101470002C85F5CF731410F4371801C0312C24FFDC
:1014800012C0B70180E390E02C870E94C20A2C852D
:1014900022FF17C021FF03C088E590E002C088E763
:1014A00090E0B7010CC0822F867859F021FD02C070
:1014B00080E201C08BE227FD8DE2B70190E00E943F
:1014C000C20AA51438F4B70180E390E00E94C20A72
:1014D0005A94F7CFAA94F401EA0DF11D8081B70167
:1014E00090E00E94C20AA110F5CF332009F451CE3A
:1014F000B70180E290E00E94C20A3A94F6CFF70169
:101500008681978102C08FEF9FEF2C96E2E10C94C9
:101510006E0B0F931F93CF93DF93869F8001879F5E
:10152000100D969F100D1124C8010E940407EC01B4
:10153000009729F0A80160E070E00E94B00ACE0197
:10154000DF91CF911F910F910895FC01059061509B
:1015500070400110D8F7809590958E0F9F1F0895C9
:10156000DC0101C06D9341505040E0F70895FC014B
:101570006150704001900110D8F7809590958E0FC2
:101580009F1F08950F931F93CF93DF93182F092F59
:10159000EB018B8181FD03C08FEF9FEF20C082FFA5
:1015A00010C04E815F812C813D81421753077CF42E
:1015B000E881F9819F012F5F3F4F39832883108392
:1015C00006C0E885F985812F0995892B29F72E8199
:1015D0003F812F5F3F4F3F832E83812F902FDF91DD
:1015E000CF911F910F910895FA01AA27283051F148
:1015F000203181F1E8946F936E7F6E5F7F4F8F4F44
:101600009F4FAF4FB1E03ED0B4E03CD0670F781FA2
:10161000891F9A1FA11D680F791F8A1F911DA11D87
:101620006A0F711D811D911DA11D20D009F46894C0
:101630003F912AE0269F11243019305D3193DEF668
:10164000CF010895462F4770405D4193B3E00FD01E
:10165000C9F7F6CF462F4F70405D4A3318F0495D09
:1016600031FD4052419302D0A9F7EACFB4E0A695EC
:101670009795879577956795BA95C9F7009761050E
:10168000710508959B01AC010A2E06945795479564
:1016900037952795BA95C9F7620F731F841F951F59
:1016A000A01D08952F923F924F925F926F927F926A
:1016B0008F929F92AF92BF92CF92DF92EF92FF9262
:1016C0000F931F93CF93DF93CDB7DEB7CA1BDB0B0E
:1016D0000FB6F894DEBF0FBECDBF09942A883988B3
:1016E00048885F846E847D848C849B84AA84B984BA
:1016F000C884DF80EE80FD800C811B81AA81B981C6
:10170000CE0FD11D0FB6F894DEBF0FBECDBFED01D9
:061710000895F894FFCFDC
:1017160000001A0220004675636B796F75004C65F0
:101726006E677468206F66206461746120746F6FE1
:10173600206269672E004C656E677468203E20380B
:101746002C206E6F7420616C6C6F7765642E004977
:10175600443A20256920204C454E4754483A2025D6
:10176600692020204441544120202563200A004E50
:1017760065772047616D650045617379004E6F722C
:101786006D616C0048617264004869676873636FD5
:101796007265004F7074696F6E730053656E73697E
:1017A60074697669747900536F756E6400536F754A
:1017B6006E64206F6E00536F756E64206F666600F0
:1017C600437265646974730044616E69656C205484
:1017D6006176616B6F6C69202020202020202020FC
:1017E600204E69636F6C617320436172626F6E6530
:1017F6002020202020202020202042796767657243
:101806006E20417574756D6E2032303137002D2D86
:021816003E0092
:00000001FF
