S00C00006C6162312E73726563B8
S11300000C9438000C9455000C9455000C94550035
S11300100C9455000C9455000C9455000C94550008
S11300200C9455000C9455000C9455000C945500F8
S11300300C9455000C9455000C9455000C945500E8
S11300400C9455000C9455000C9455000C945500D8
S11300500C9455000C9455000C9455000C945500C8
S11300600C9455000C9455000C9455000C945500B8
S113007011241FBECFEFD4E0DEBFCDBF12E0A0E05D
S1130080B1E0E0E7FEE002C005900D92A835B107AB
S1130090D9F722E0A8E5B2E001C01D92AA36B20762
S11300A0E1F70E9465000C9436070C940000309828
S11300B00895B898B998BA98C29A089585B780688F
S11300C085BF80B7806280BF08958FE190E00E9471
S11300D0A6020E945E000E9459000E9457000E94DE
S11300E047020E942E020E94D6000E94A600C6E08B
S11300F0D1E080E30E9492000E94BC001F928F9383
S1130100DF93CF930E9423049FEF2FEF8EE0915053
S113011020408040E1F700C000000F900F900F9046
S11301200F90E7CFCF93C82FC49883E00E94820238
S11301308C2F0E9482020E948602C49ACF91089555
S1130140C49880EC0E948202C49A08950E947902A5
S11301500E94A0008EE00E949200807E803831F0E0
S11301608CE191E00E94370481E008958EE491E0EF
S11301700E94370480E00895CF93C49880EA0E94D7
S113018082020E948602C82F0E948602C81751F07C
S11301908CE791E09F938F930E9423040F900F901C
S11301A080E002C0C49A8C2FCF9108952F923F9281
S11301B04F925F926F927F928F929F92AF92BF9273
S11301C0CF92DF92EF92FF920F931F93CF93DF931F
S11301D000D000D000D0CDB7DEB78AE090E00E9416
S11301E0B1029E838D838AE090E00E94B1024C01AB
S11301F08AE090E00E94B1025C018AE090E00E94F3
S1130200B1029A8389838AE090E00E94B1026C0172
S11302108AE090E00E94B1028C018AE090E00E94A2
S1130220B1027C018AE090E00E94B1022C018AE0D4
S113023090E00E94B1029C838B838AE090E00E944C
S1130240B1023C018AE090E00E94B1021C018AE004
S113025090E00E94B1029C0190935B0280935A0249
S11302608D819E8190935D0280935C0290935902EC
S11302708093580285EB91E0AD81BE8111969C93E9
S11302808E9315961C921E9214971396DC92CE921E
S1130290129717969C928E92169719961C921E92FC
S11302A018978EEB91E0F401918380831582148278
S11302B0B382A28217821682B187A08783EC91E071
S11302C0D50111969C938E9315969C928E921497B9
S11302D0E981FA811396FC93EE93129717961C9278
S11302E01E9216978D819E8119969C938E931897D2
S11302F08AEC91E091838083B582A4821382128276
S113030017821682AD81BE81B187A0878FEC91E000
S1130310F60191838083B583A483138302831782B8
S113032016821186108689ED91E0D80111969C936E
S11303308E931596DC92CE92149713963C922E923D
S1130340129717967C926E92169719961C921E928B
S1130350189781EE91E0F3019183808315821482D2
S1130360F382E28217821682118700878DEE91E074
S1130370D70111969C938E9315967C926E92149746
S113038013961C921E92129717965C924E92169791
S113039019961C930E93189783EF91E0F2019183C1
S11303A08083158214828B819C819383828317823C
S11303B01682F186E0868CEF91E0AB81BC811196C8
S11303C09C938E9315965C924E92149713961C925E
S11303D01E92129717961C921E9216971996FC92CB
S11303E0EE92189786E092E0F10191838083158361
S11303F004831382128237832683118610868EE04B
S113040092E0D90111969C938E9315961C921E929C
S1130410149713961C921E92129717961C921E9272
S1130420169719963C922E92189726960FB6F89422
S1130430DEBF0FBECDBFDF91CF911F910F91FF9013
S1130440EF90DF90CF90BF90AF909F908F907F9070
S11304506F905F904F903F902F9008951F93CF938C
S1130460DF9310E0D0E0812F0E949802CD2F8C2FD3
S11304700E949B028D2F0E948B02CF5FC038B9F778
S11304801F5F183081F7DF91CF911F910895E0E04D
S1130490F0E18EEA808381EA80838AED808382E1C1
S11304A0808388EC808388EA80838FE3808385ED72
S11304B0808380E8808381E8808380E5808389ED80
S11304C0808381E2808380E2808382E080838BED7D
S11304D0808380E380838DEA8083108284EA808332
S11304E086EA80838FEA808310925E0210925F0214
S11304F0089587B3806A87BBBE9881E58DB9BC9A9D
S1130500C49A08958FB9779BFECF089580E00E9426
S113051082028FB1089590915E02E0915F02F0E053
S113052020E8929FE00DF11D1124F85E8083089568
S113053080935E02089580935F0208955D9BFECFD1
S11305408CB908955F9BFECF8CB1089590BD89B995
S113055088E18AB962EA72E08EE992E00E94D803E7
S11305600895CF93DF938230910510F482E090E0F8
S1130570E0916202F091630220E030E0A0E0B0E09C
S1130580309739F14081518148175907B8F048171D
S1130590590771F482819381109729F013969C93E3
S11305A08E9312972CC0909363028093620227C0AB
S11305B02115310531F04217530718F0A901DB0169
S11305C001C0EF019A01BD01DF010280F381E02D3A
S11305D0D7CF21153105F9F0281B390B243031050B
S11305E080F48A819B816115710521F0FB0193835D
S11305F0828304C09093630280936202FE01329668
S113060044C0FE01E20FF31F8193919322503109FC
S1130610398328833AC02091600230916102232BF0
S113062041F420910201309103013093610220933F
S1130630600220910001309101012115310541F43E
S11306402DB73EB74091040150910501241B350B91
S1130650E0916002F0916102E217F307A0F42E1B0F
S11306603F0B2817390778F0AC014E5F5F4F241712
S1130670350748F04E0F5F1F5093610240936002AC
S11306808193919302C0E0E0F0E0CF01DF91CF913C
S11306900895CF93DF93009709F487C0FC01329744
S11306A013821282C0916202D0916302209781F476
S11306B020813181280F391F80916002909161025D
S11306C08217930779F5F0936102E09360026DC09D
S11306D0DE0120E030E0AE17BF0750F412964D91D2
S11306E05C9113979D014115510509F1DA01F3CF8E
S11306F0B383A28340815181840F951F8A179B077E
S113070071F48D919C911197840F951F029691839A
S1130710808312968D919C911397938382832115E4
S1130720310529F4F0936302E09362023EC0D901DB
S11307301396FC93EE9312974D915D91A40FB51F00
S1130740EA17FB0779F480819181840F951F029643
S1130750D90111969C938E938281938113969C93D5
S11307608E931297E0E0F0E08A819B81009719F064
S1130770FE01EC01F9CFCE01029628813981820F66
S1130780931F20916002309161022817390769F4A0
S1130790309729F4109263021092620202C013820D
S11307A01282D0936102C0936002DF91CF910895C9
S11307B00F931F93CF93DF93EC018B01009731F4D8
S11307C06115710519F480E090E038C06EE070E0C6
S11307D081E090E00E943606FC010097A1F380E8D6
S11307E083830115110571F01387028781E88383E0
S11307F08091640290916502892B21F4F093650243
S1130800E09364022097C9F0D187C0878381826016
S113081083838091660290916702892B71F4F0932F
S11308206702E09366028091680290916902892BC5
S113083021F4F0936902E0936802CF01DF91CF9134
S11308401F910F910895A0E0B0E0E9E2F4E00C9468
S11308500F07FE01359661917191AF018091660297
S1130860909167020E946404E2E00C942B070F93BA
S11308701F93CF93DF93E0916602F0916702238187
S113088021FF1BC0EC0100E010E089916091660239
S113089070916702DB011896ED91FC9119978823FA
S11308A031F00995892B89F30FEF1FEFEECF8AE022
S11308B00995892B11F4C80102C08FEF9FEFDF91D6
S11308C0CF911F910F910895ACE0B0E0EAE6F4E017
S11308D00C94FF067C016B018A01FC0117821682CD
S11308E0838181FFBDC1CE0101964C01F701938143
S11308F0F60193FD859193FF81916F01882309F49B
S1130900ABC1853239F493FD859193FF81916F01D9
S1130910853229F4B70190E00E946F06E7CF512C8D
S1130920312C20E02032A0F48B3269F030F4803294
S113093059F0833269F420612CC08D3239F0803350
S113094039F4216026C02260246023C0286021C0BD
S113095027FD27C030ED380F3A3078F426FF06C063
S1130960FAE05F9E300D1124532E13C08AE0389EA6
S1130970300D1124332E20620CC08E3221F426FD5A
S11309806BC1206406C08C3611F4206802C088361E
S113099041F4F60193FD859193FF81916F018111DB
S11309A0C1CF982F9F7D9554933028F40C5F1F4F2F
S11309B0FFE3F9830DC0833631F0833771F083355B
S11309C009F05BC022C0F801808189830E5F1F4F4C
S11309D044244394512C540115C03801F2E06F0EA5
S11309E0711CF801A080B18026FF03C0652D70E062
S11309F002C06FEF7FEFC5012C870E9464062C01B3
S1130A0083012C852F77222E17C03801F2E06F0E58
S1130A10711CF801A080B18026FF03C0652D70E031
S1130A2002C06FEF7FEFC5012C870E9452062C0194
S1130A302C852068222E830123FC1BC0832D90E08B
S1130A4048165906B0F4B70180E290E00E946F06A0
S1130A503A94F4CFF50127FC859127FE81915F013B
S1130A60B70190E00E946F0631103A94F1E04F1AFA
S1130A7051084114510471F7E5C0843611F08936E8
S1130A8039F5F80127FF07C0608171818281938164
S1130A900C5F1F4F08C060817181882777FD8095A6
S1130AA0982F0E5F1F4F2F76B22E97FF09C0909597
S1130AB08095709561957F4F8F4F9F4F2068B22E20
S1130AC02AE030E0A4010E94A106A82EA81844C080
S1130AD0853729F42F7EB22E2AE030E025C0F22F8C
S1130AE0F97FBF2E8F36C1F018F4883579F0B4C081
S1130AF0803719F0883721F0AFC02F2F2061B22E34
S1130B00B4FE0DC08B2D8460B82E09C024FF0AC02A
S1130B109F2F9660B92E06C028E030E005C020E182
S1130B2030E002C020E132E0F801B7FE07C0608186
S1130B307181828193810C5F1F4F06C06081718136
S1130B4080E090E00E5F1F4FA4010E94A106A82E32
S1130B50A818FB2DFF77BF2EB6FE0BC02B2D2E7FC2
S1130B60A51450F4B4FE0AC0B2FC08C02B2D2E7E8E
S1130B7005C07A2C2B2D03C07A2C01C0752C24FFC0
S1130B800DC0FE01EA0DF11D8081803311F4297E30
S1130B9009C022FF06C07394739404C0822F867820
S1130BA009F0739423FD13C020FF06C05A2C73145C
S1130BB018F4530C5718732C731468F4B70180E2BB
S1130BC090E02C870E946F0673942C85F5CF7314E4
S1130BD010F4371801C0312C24FF12C0B70180E390
S1130BE090E02C870E946F062C8522FF17C021FFFE
S1130BF003C088E590E002C088E790E0B7010CC02C
S1130C00822F867859F021FD02C080E201C08BE278
S1130C1027FD8DE2B70190E00E946F06A51438F419
S1130C20B70180E390E00E946F065A94F7CFAA942C
S1130C30F401EA0DF11D8081B70190E00E946F0676
S1130C40A110F5CF332009F451CEB70180E290E032
S1130C500E946F063A94F6CFF7018681978102C00D
S1130C608FEF9FEF2C96E2E10C941B070F931F93D9
S1130C70CF93DF93869F8001879F100D969F100D61
S1130C801124C8010E94B102EC01009729F0A801C7
S1130C9060E070E00E945D06CE01DF91CF911F916C
S1130CA00F910895FC010590615070400110D8F730
S1130CB0809590958E0F9F1F0895DC0101C06D9360
S1130CC041505040E0F70895FC016150704001909C
S1130CD00110D8F7809590958E0F9F1F08950F935C
S1130CE01F93CF93DF93182F092FEB018B8181FD85
S1130CF003C08FEF9FEF20C082FF10C04E815F8141
S1130D002C813D81421753077CF4E881F9819F01CE
S1130D102F5F3F4F39832883108306C0E885F98508
S1130D20812F0995892B29F72E813F812F5F3F4F12
S1130D303F832E83812F902FDF91CF911F910F91AD
S1130D400895FA01AA27283051F1203181F1E8945D
S1130D506F936E7F6E5F7F4F8F4F9F4FAF4FB1E0AA
S1130D603ED0B4E03CD0670F781F891F9A1FA11DA5
S1130D70680F791F8A1F911DA11D6A0F711D811DA6
S1130D80911DA11D20D009F468943F912AE0269F6B
S1130D9011243019305D3193DEF6CF010895462FCA
S1130DA04770405D4193B3E00FD0C9F7F6CF462FAB
S1130DB04F70405D4A3318F0495D31FD4052419314
S1130DC002D0A9F7EACFB4E0A695979587957795D1
S1130DD06795BA95C9F700976105710508959B0158
S1130DE0AC010A2E06945795479537952795BA95E1
S1130DF0C9F7620F731F841F951FA01D08952F92BA
S1130E003F924F925F926F927F928F929F92AF9296
S1130E10BF92CF92DF92EF92FF920F931F93CF93E3
S1130E20DF93CDB7DEB7CA1BDB0B0FB6F894DEBF7A
S1130E300FBECDBF09942A88398848885F846E84A0
S1130E407D848C849B84AA84B984C884DF80EE80EA
S1130E50FD800C811B81AA81B981CE0FD11D0FB6F3
S1130E60F894DEBF0FBECDBFED010895F894FFCF17
S1130E7000006A02200052657475726E65727420F7
S1130E80766572646920253032580A004D43503229
S1130E90353135206973204E4F5420696E20636FBD
S1130EA06E66696775726174696F6E096D6F6465EA
S1130EB020616674657220726573657421004D4308
S1130EC0503235313520495320696E20636F6E6688
S1130ED0696775726174696F6E206D6F64652061F6
S1130EE0667465722072657365742100537461744D
S1130EF075732072656769737465727320696E20F7
S1130F006D6370323531355F726561645F7374612E
S1130F107475732829206E6F74206964656E746912
S1130F2063616C2E004E65772047616D65004561F5
S1130F307379004E6F726D616C0048617264004891
S1130F4069676873636F7265004F7074696F6E735D
S1130F500053656E736974697669747900536F75AB
S1130F606E6400536F756E64206F6E00536F756E00
S1130F7064206F666600437265646974730044613B
S1130F806E69656C20546176616B6F6C69202020FA
S1130F90202020202020204E69636F6C6173204341
S1130FA06172626F6E652020202020202020202086
S1130FB04279676765726E20417574756D6E203273
S10B0FC0303137002D2D3E00F5
S9030000FC
