:1000000071C000008EC000008CC000008AC00000DB
:1000100088C0000086C0000084C0000082C00000CC
:1000200080C000007EC000007CC000007AC00000DC
:1000300078C0000076C0000074C0000072C00000EC
:1000400070C000006EC000006CC000006AC00000FC
:1000500068C0000066C0000064C0000062C000000C
:1000600060C000005EC000005CC000005AC000001C
:1000700058C0000056C0000054C0000052C000002C
:1000800050C000004EC000004CC000004AC000003C
:1000900048C0000046C0000044C0000042C000004C
:1000A00040C000003EC000003CC000003AC000005C
:1000B00038C0000036C0000034C0000032C000006C
:1000C00030C000002EC000002CC000002AC000007C
:1000D00028C0000026C0000024C0000022C000008C
:1000E00020C0000011241FBECFEFD1E2DEBFCDBF84
:1000F00000E00CBF12E0A0E0B2E0E2E4F0E100E0DA
:100100000BBF02C007900D92A038B107D9F722E0CB
:10011000A0E8B2E001C01D92AC38B207E1F714D1FB
:100120008EC76ECFB2D043E063E08BE2C8D060E010
:1001300080E297D060E081E294D060E084E291D0E8
:1001400060E085E28ED040E060EE8FE0B8C00895B8
:100150009F92AF92BF92CF92DF92EF92FF920F9356
:100160001F93CF93DF937C01FC0111821082128ACE
:10017000138212828CE26AD080FF47C081E666D08B
:10018000C82FD0E082E662D090E05E01AA0CBB1CD2
:10019000AA0CBB1CAA0CBB1C9695879592958295C0
:1001A0008F7089279F708927A82AB92A85E64ED0A3
:1001B000982EF8E0F81730F0C82ED12C1C141D042E
:1001C0005CF01CC08EE192E09F938F934BD30F9015
:1001D0000F9080E090E01BC087010E5F1F4FC0E0D2
:1001E000D0E08C2F8A5932D0282F30E0F8012193AB
:1001F00031938F012196CC15DD059CF3F701B18277
:10020000A082928A81E090E002C081E090E0DF91DC
:10021000CF911F910F91FF90EF90DF90CF90BF9003
:10022000AF909F900895BC01882777FD8095982F07
:10023000B9D120E030E04FE753E419D120E030E0BD
:1002400048EC52E43BD27BD1CB010895CF93C82F29
:100250002F9883E053D08C2F51D055D02F9ACF9127
:100260000895CF93DF93D82FC62F2F9882E046D0E2
:100270008D2F44D08C2F42D02F9ADF91CF910895AB
:100280002F9880EC3BD02F9A08952DD0F9DF83E092
:100290008A95F1F700008EE0D9DF982F907E81E0FB
:1002A000903809F480E00895CF932F9880EA26D003
:1002B0002AD0C82F28D02F9A8C2FCF9108951F9322
:1002C000CF93DF93182FD62FC42F2F9885E016D009
:1002D000812F14D08D2F12D08C2F10D02F9ADF9118
:1002E000CF911F91089584B1866084B9239881E5E8
:1002F0008CBD279A2F9A209A289A08958EBD0DB406
:1003000007FEFDCF089580E0F9DF8EB50895E0EC9B
:10031000F0E0908195FFFDCF8093C6000895E0EC5A
:10032000F0E080818823ECF78091C60008959093D7
:10033000C5008093C40088E18093C1006FE871E03C
:1003400087E891E045C20895CF93DF93CDB7DEB73C
:1003500064970FB6F894DEBF0FBECDBF87E690E07E
:10036000E6DFE0DE44D007E312E09EDF8C8B8C8971
:1003700080FF36C0CE010196EBDE88898F938F8592
:100380008F938E858F938D858F938C858F938B859F
:100390008F938A858F9389858F9388858F938F819B
:1003A0008F938E818F938D818F938C818F938B818F
:1003B0008F938B891F928F938A818F9389818F93DB
:1003C0001F930F934FD2109281021092800240E04F
:1003D00061E08CE274DF0FB6F894DEBF0FBECDBFD4
:1003E0008FEF90E001D0C1CF1EDF28C00895A0E8B4
:1003F000B0E08C918E7F8C938C9182608C93E1E83D
:10040000F0E08081886080838081806180838C912E
:1004100080688C938C918F7B8C93808184608083A7
:1004200080818D7F808380818E7F8083259A81EE7D
:1004300094E0909387008093860008958536910517
:1004400098F44BE4489F9001499F300D1124C90155
:1004500064E670E096D1685C7F4F7093890060938A
:10046000880081E090E008958FEF9FEF08950CD011
:10047000EBC0E3D040F0DAD030F021F45F3F19F068
:10048000CCC0511115C1CFC0F0D098F39923C9F356
:100490005523B1F3951B550BBB27AA27621773078A
:1004A000840738F09F5F5F4F220F331F441FAA1F3E
:1004B000A9F333D00E2E3AF0E0E830D091505040FE
:1004C000E695001CCAF729D0FE2F27D0660F771FAC
:1004D000881FBB1F261737074807AB07B0E809F08E
:1004E000BB0B802DBF01FF2793585F4F2AF09E3F23
:1004F000510568F092C0DCC05F3FECF3983EDCF33E
:10050000869577956795B795F7959F5FC9F7880F9B
:10051000911D9695879597F90895E1E0660F771FED
:10052000881FBB1F621773078407BA0720F0621B7E
:10053000730B840BBA0BEE1F88F7E095089504D077
:100540006894B111B5C0089598D088F09F5790F085
:10055000B92F9927B751A0F0D1F0660F771F881FE8
:10056000991F1AF0BA95C9F712C0B13081F09FD027
:10057000B1E008959CC0672F782F8827B85F39F0C5
:10058000B93FCCF3869577956795B395D9F73EF447
:1005900090958095709561957F4F8F4F9F4F0895EF
:1005A000E89409C097FB3EF490958095709561950D
:1005B0007F4F8F4F9F4F9923A9F0F92F96E9BB27C3
:1005C0009395F695879577956795B795F111F8CF3F
:1005D000FAF4BB0F11F460FF1BC06F5F7F4F8F4FAA
:1005E0009F4F16C0882311F096E911C0772321F0A0
:1005F0009EE8872F762F05C0662371F096E8862F38
:1006000070E060E02AF09A95660F771F881FDAF78E
:10061000880F9695879597F9089597F99F6780E8D1
:1006200070E060E008959FEF80EC089500240A9444
:100630001616170618060906089500240A941216BD
:100640001306140605060895092E0394000C11F4F0
:10065000882352F0BB0F40F4BF2B11F460FF04C09D
:100660006F5F7F4F8F4F9F4F089557FD9058440FF6
:10067000551F59F05F3F71F04795880F97FB991F01
:1006800061F09F3F79F087950895121613061406BE
:10069000551FF2CF4695F1DF08C01616170618064B
:1006A000991FF1CF86957105610508940895E89426
:1006B000BB2766277727CB0197F908950BD0C4CFC6
:1006C000B5DF28F0BADF18F0952309F0A6CFABCF3D
:1006D0001124EECFCADFA0F3959FD1F3950F50E020
:1006E000551F629FF001729FBB27F00DB11D639FE4
:1006F000AA27F00DB11DAA1F649F6627B00DA11D8A
:10070000661F829F2227B00DA11D621F739FB00D2F
:10071000A11D621F839FA00D611D221F749F33279F
:10072000A00D611D231F849F600D211D822F762F38
:100730006A2F11249F5750408AF0E1F088234AF035
:10074000EE0FFF1FBB1F661F771F881F9150504081
:10075000A9F79E3F510570F060CFAACF5F3FECF341
:10076000983EDCF3869577956795B795F795E7956D
:100770009F5FC1F7FE2B880F911D9695879597F97E
:10078000089597FB072E16F4009406D077FD08D045
:100790000BD007FC05D03EF4909581959F4F0895AE
:1007A000709561957F4F0895AA1BBB1B51E107C04F
:1007B000AA1FBB1FA617B70710F0A61BB70B881FF1
:1007C000991F5A95A9F780959095BC01CD01089580
:1007D0000F931F93CF93DF93EC018B01009731F4BC
:1007E0006115710519F480E090E037C06EE070E0AB
:1007F00081E090E036D2FC010097A9F380E8838382
:100800000115110571F01387028781E883838091B8
:10081000820290918302892B21F4F0938302E0936A
:1008200082022097C9F0D187C08783818260838349
:100830008091840290918502892B71F4F093850256
:10084000E09384028091860290918702892B21F4A3
:10085000F0938702E0938602CF01DF91CF911F9141
:100860000F910895CF93DF93CDB7DEB7FE01369693
:1008700061917191AF01809184029091850203D0C2
:10088000DF91CF9108952F923F924F925F926F9296
:100890007F928F929F92AF92BF92CF92DF92EF9210
:1008A000FF920F931F93CF93DF93CDB7DEB72C97B3
:1008B0000FB6F894DEBF0FBECDBF7C016B018A017D
:1008C000FC0117821682838181FFB0C1CE0101969F
:1008D0004C01F7019381F60193FD859193FF81917E
:1008E0006F01882309F49EC1853239F493FD859107
:1008F00093FF81916F01853221F4B70190E00FD30E
:10090000E8CF512C312C20E02032A0F48B3269F05A
:1009100030F4803259F0833269F420612CC08D327A
:1009200039F0803339F4216026C02260246023C06E
:10093000286021C027FD27C030ED380F3A3078F409
:1009400026FF06C0FAE05F9E300D1124532E13C01F
:100950008AE0389E300D1124332E20620CC08E3276
:1009600021F426FD5FC1206406C08C3611F4206896
:1009700002C0883641F4F60193FD859193FF819181
:100980006F018111C1CF982F9F7D9554933028F42A
:100990000C5F1F4FFFE3F9830DC0833631F08337BF
:1009A00071F0833509F057C021C0F8018081898337
:1009B0000E5F1F4F44244394512C540114C038013E
:1009C000F2E06F0E711CF801A080B18026FF03C019
:1009D000652D70E002C06FEF7FEFC5012C8794D2C8
:1009E0002C0183012C852F77222E16C03801F2E0CE
:1009F0006F0E711CF801A080B18026FF03C0652D29
:100A000070E002C06FEF7FEFC5012C876BD22C0125
:100A10002C852068222E830123FC19C0832D90E0B1
:100A200048165906A0F4B70180E290E078D23A94D3
:100A3000F5CFF50127FC859127FE81915F01B70174
:100A400090E06DD231103A94F1E04F1A5108411400
:100A5000510479F7DEC0843611F0893631F5F8019A
:100A600027FF07C060817181828193810C5F1F4FD6
:100A700008C060817181882777FD8095982F0E5F6F
:100A80001F4F2F76B22E97FF09C0909580957095D5
:100A900061957F4F8F4F9F4F2068B22E2AE030E044
:100AA000A4016FD2A82EA81843C0853729F42F7E41
:100AB000B22E2AE030E025C0F22FF97FBF2E8F360C
:100AC000C1F018F4883579F0ADC0803719F0883757
:100AD00021F0A8C02F2F2061B22EB4FE0DC08B2DA7
:100AE0008460B82E09C024FF0AC09F2F9660B92EDB
:100AF00006C028E030E005C020E130E002C020E17F
:100B000032E0F801B7FE07C0608171818281938174
:100B10000C5F1F4F06C06081718180E090E00E5F26
:100B20001F4FA4012ED2A82EA818FB2DFF77BF2E91
:100B3000B6FE0BC02B2D2E7FA51450F4B4FE0AC0B8
:100B4000B2FC08C02B2D2E7E05C07A2C2B2D03C0A5
:100B50007A2C01C0752C24FF0DC0FE01EA0DF11D99
:100B60008081803311F4297E09C022FF06C073946E
:100B7000739404C0822F867809F0739423FD12C009
:100B800020FF06C05A2C731418F4530C5718732CFA
:100B9000731460F4B70180E290E02C87C0D17394A5
:100BA0002C85F6CF731410F4371801C0312C24FFB4
:100BB00011C0B70180E390E02C87B1D12C8522FFD2
:100BC00016C021FF03C088E590E002C088E790E0EE
:100BD000B7010CC0822F867851F021FD02C080E25F
:100BE00001C08BE227FD8DE2B70190E098D1A514FA
:100BF00030F4B70180E390E092D15A94F8CFAA94F0
:100C0000F401EA0DF11D8081B70190E088D1A110B7
:100C1000F6CF332009F45DCEB70180E290E07FD1BA
:100C20003A94F7CFF7018681978102C08FEF9FEF4B
:100C30002C960FB6F894DEBF0FBECDBFDF91CF91DB
:100C40001F910F91FF90EF90DF90CF90BF90AF90EA
:100C50009F908F907F906F905F904F903F902F90DC
:100C600008950F931F93CF93DF93869F8001879FF3
:100C7000100D969F100D1124C8010DD0EC010097A6
:100C800021F0A80160E070E038D1CE01DF91CF9172
:100C90001F910F910895CF93DF938230910510F447
:100CA00082E090E0E0918A02F0918B0220E030E057
:100CB000A0E0B0E0309739F14081518148175907E1
:100CC000B8F04817590771F482819381109729F081
:100CD00013969C938E9312972CC090938B028093C3
:100CE0008A0227C02115310531F04217530718F049
:100CF000A901DB0101C0EF019A01BD01DF01028002
:100D0000F381E02DD7CF21153105F9F0281B390BE0
:100D10002430310580F48A819B816115710521F0B1
:100D2000FB019383828304C090938B0280938A0299
:100D3000FE01329644C0FE01E20FF31F81939193AE
:100D400022503109398328833AC02091880230919A
:100D50008902232B41F42091020230910302309347
:100D6000890220938802209100023091010221150E
:100D7000310541F42DB73EB7409104025091050270
:100D8000241B350BE0918802F0918902E217F307EA
:100D9000A0F42E1B3F0B2817390778F0AC014E5FEB
:100DA0005F4F2417350748F04E0F5F1F509389029D
:100DB000409388028193919302C0E0E0F0E0CF017C
:100DC000DF91CF910895CF93DF93009709F487C007
:100DD000FC01329713821282C0918A02D0918B0259
:100DE000209781F420813181280F391F809188025A
:100DF000909189028217930779F5F0938902E09325
:100E000088026DC0DE0120E030E0AE17BF0750F46D
:100E100012964D915C9113979D014115510509F171
:100E2000DA01F3CFB383A28340815181840F951FF0
:100E30008A179B0771F48D919C911197840F951FD0
:100E400002969183808312968D919C911397938340
:100E500082832115310529F4F0938B02E0938A02F5
:100E60003EC0D9011396FC93EE9312974D915D917C
:100E7000A40FB51FEA17FB0779F480819181840FD5
:100E8000951F0296D90111969C938E93828193812E
:100E900013969C938E931297E0E0F0E08A819B81F9
:100EA000009719F0FE01EC01F9CFCE0102962881DE
:100EB0003981820F931F209188023091890228176F
:100EC000390769F4309729F410928B0210928A0244
:100ED00002C013821282D0938902C0938802DF91EC
:100EE000CF910895FC010590615070400110D8F732
:100EF000809590958E0F9F1F0895DC0101C06D9322
:100F000041505040E0F70895FC016150704001905D
:100F10000110D8F7809590958E0F9F1F08950F931D
:100F20001F93CF93DF93182F092FEB018B8181FD46
:100F300003C08FEF9FEF20C082FF10C04E815F8102
:100F40002C813D81421753077CF4E881F9819F0190
:100F50002F5F3F4F39832883108306C0E885F985CA
:100F6000812F1995892B29F72E813F812F5F3F4FC4
:100F70003F832E83812F902FDF91CF911F910F916F
:100F80000895FA01AA27283051F1203181F1E8941F
:100F90006F936E7F6E5F7F4F8F4F9F4FAF4FB1E06C
:100FA0003ED0B4E03CD0670F781F891F9A1FA11D67
:100FB000680F791F8A1F911DA11D6A0F711D811D68
:100FC000911DA11D20D009F468943F912AE0269F2D
:100FD00011243019305D3193DEF6CF010895462F8C
:100FE0004770405D4193B3E00FD0C9F7F6CF462F6D
:100FF0004F70405D4A3318F0495D31FD40524193D6
:1010000002D0A9F7EACFB4E0A69597958795779592
:101010006795BA95C9F700976105710508959B0119
:10102000AC010A2E06945795479537952795BA95A2
:10103000C9F7620F731F841F951FA01D0895F894B0
:02104000FFCFE0
:1010420000008C0220004C656E677468206F662079
:101052006461746120746F6F206269672E004C6551
:101062006E677468203E20382C206E6F7420616C8D
:101072006C6F7765642E0049443A20256920204C24
:10108200454E4754483A202569202020414C4C20A7
:101092004441544120202569202020202569202018
:1010A2002025692020202025692020202025692054
:1010B20020202025692020202025692020200A00C8
:00000001FF
