:1000000071C000008EC000008CC000008AC00000DB
:1000100088C0000086C0000084C0000082C00000CC
:1000200080C000007EC000007CC000007AC00000DC
:1000300078C0000076C0000074C0000072C00000EC
:1000400070C000006EC000006CC000006AC00000FC
:1000500068C0000066C0000064C0000062C000000C
:1000600060C000005EC000005CC000005AC000001C
:1000700058C0000056C0000054C0000052C000002C
:1000800050C000004EC000004CC000004AC000003C
:1000900048C0000046C0000044C0000042C000004C
:1000A00040C000003EC000003CC000003AC000005C
:1000B00038C0000036C0000034C0000032C000006C
:1000C00030C000002EC000002CC000002AC000007C
:1000D00028C0000026C0000024C0000022C000008C
:1000E00020C0000011241FBECFEFD1E2DEBFCDBF84
:1000F00000E00CBF12E0A0E0B2E0E2E7FDE000E0CB
:100100000BBF02C007900D92A03FB107D9F722E0C4
:10011000A0EFB2E001C01D92AA3FB207E1F780D183
:1001200026C66ECF04D143E063E08BE234D160E0B9
:1001300080E2E9D060E081E2E6D060E084E2E3D0F2
:1001400060E085E2E0D040E460EE8FE024C10895F5
:10015000EF92FF920F931F93CF93DF937C0180E385
:10016000C7D083FDFCCFF70160816295660F607E8A
:1001700082E3C9D0F70160817181769567957695A4
:1001800067957695679581E3BED0F701628585E333
:10019000BAD0F7018285893018F4811109C01AC0DC
:1001A00086E092E09F938F93F5D10F900F9015C04A
:1001B00087010E5F1F4FC0E0D0E0F80161918F0111
:1001C0008C2F8A5CA0D02196F701228530E0C217DF
:1001D000D3079CF380E090E0B9D0DF91CF911F91DD
:1001E0000F91FF90EF9008958F929F92AF92BF92E0
:1001F000CF92DF92EF92FF920F931F93CF93DF93F3
:10020000CDB7DEB72B970FB6F894DEBF0FBECDBFCC
:100210007C011B828CE26CD080FF48C081E668D0F4
:10022000082F10E082E664D090E05801AA0CBB1CB5
:10023000AA0CBB1CAA0CBB1C96958795929582951F
:100240008F7089279F708927A82AB92A85E650D000
:10025000882E88E0881518F0811014C02AC08EE11D
:1002600092E09F938F9396D11A8219821B868BE01E
:10027000FE013196D70101900D928A95E1F70F901A
:100280000F9022C08E010D5F1F4F6801C80CD11C5A
:100290000F2EF6E69F2EF02D892D2AD0F80181939E
:1002A0008F019394EC15FD05B9F703C0812CA12CA7
:1002B000B12CBA82A9828B868BE0FE013196D701E0
:1002C00001900D928A95E1F7C7012B960FB6F8942D
:1002D000DEBF0FBECDBFDF91CF911F910F91FF9079
:1002E000EF90DF90CF90BF90AF909F908F90089548
:1002F000CF93C82F2F9883E06DD08C2F6BD06FD009
:100300002F9ACF910895CF93DF93D82FC62F2F9890
:1003100082E060D08D2F5ED08C2F5CD02F9ADF9141
:10032000CF9108952F9880EC55D02F9A089547D0FB
:10033000F9DF83E08A95F1F700008EE0D9DF982F8E
:10034000907E81E0903809F480E008952F9800971E
:1003500019F481E83FD007C0019719F482E83AD038
:1003600002C084E837D02F9A0895CF932F9880EA5F
:1003700031D035D0C82F33D0C81749F087E392E089
:100380009F938F9307D10F900F9080E002C02F9A18
:100390008C2FCF9108951F93CF93DF93182FD62FD3
:1003A000C42F2F9885E016D0812F14D08D2F12D016
:1003B0008C2F10D02F9ADF91CF911F91089584B187
:1003C000866084B9239881E58CBD279A2F9A209A5C
:1003D000289A08958EBD0DB407FEFDCF089580E0E4
:1003E000F9DF8EB50895E0ECF0E0908195FFFDCF48
:1003F0008093C6000895E0ECF0E080818823ECF75C
:100400008091C60008959093C5008093C40088E150
:100410008093C1006BEF71E083EF91E071C00895AC
:10042000CF93DF93CDB7DEB766970FB6F894DEBFF4
:100430000FBECDBF87E690E0E6DF74DE85E090E09A
:100440009A83898388E08B8781E38B8382E38C8323
:1004500083E38D8384E38E8385E38F8386E38887BC
:1004600087E3898788E38A8700E712E00F2EF0E8A8
:10047000CF2EF2E0DF2EF02D0F2EF4EAEF2EF2E079
:10048000FF2EF02DCE01019663DE6FDFB82E1F9296
:100490008F931F930F937ED00F900F900F900F901C
:1004A000B0FEF0CFDF92CF9275D0CE010C969CDEDD
:1004B0008D891F928F938C891F928F938B891F92A6
:1004C0008F938A891F928F9389891F928F9388892E
:1004D0001F928F938F851F928F938E851F928F937C
:1004E0008E891F928F938D858F938C858F93FF922A
:1004F000EF9250D00FB6F894DEBF0FBECDBFC2CF83
:100500000F931F93CF93DF93EC018B01009731F48E
:100510006115710519F480E090E037C06EE070E07D
:1005200081E090E036D2FC010097A9F380E8838354
:100530000115110571F01387028781E8838380918B
:10054000F0029091F102892B21F4F093F102E093F3
:10055000F0022097C9F0D187C087838182608383AE
:100560008091F2029091F302892B71F4F093F302DF
:10057000E093F2028091F4029091F502892B21F42C
:10058000F093F502E093F402CF01DF91CF911F9138
:100590000F910895CF93DF93CDB7DEB7FE01369666
:1005A00061917191AF018091F2029091F30203D0B9
:1005B000DF91CF9108952F923F924F925F926F9269
:1005C0007F928F929F92AF92BF92CF92DF92EF92E3
:1005D000FF920F931F93CF93DF93CDB7DEB72C9786
:1005E0000FB6F894DEBF0FBECDBF7C016B018A0150
:1005F000FC0117821682838181FFB0C1CE01019672
:100600004C01F7019381F60193FD859193FF819150
:100610006F01882309F49EC1853239F493FD8591D9
:1006200093FF81916F01853221F4B70190E00FD3E0
:10063000E8CF512C312C20E02032A0F48B3269F02D
:1006400030F4803259F0833269F420612CC08D324D
:1006500039F0803339F4216026C02260246023C041
:10066000286021C027FD27C030ED380F3A3078F4DC
:1006700026FF06C0FAE05F9E300D1124532E13C0F2
:100680008AE0389E300D1124332E20620CC08E3249
:1006900021F426FD5FC1206406C08C3611F4206869
:1006A00002C0883641F4F60193FD859193FF819154
:1006B0006F018111C1CF982F9F7D9554933028F4FD
:1006C0000C5F1F4FFFE3F9830DC0833631F0833792
:1006D00071F0833509F057C021C0F801808189830A
:1006E0000E5F1F4F44244394512C540114C0380111
:1006F000F2E06F0E711CF801A080B18026FF03C0EC
:10070000652D70E002C06FEF7FEFC5012C8794D29A
:100710002C0183012C852F77222E16C03801F2E0A0
:100720006F0E711CF801A080B18026FF03C0652DFB
:1007300070E002C06FEF7FEFC5012C876BD22C01F8
:100740002C852068222E830123FC19C0832D90E084
:1007500048165906A0F4B70180E290E078D23A94A6
:10076000F5CFF50127FC859127FE81915F01B70147
:1007700090E06DD231103A94F1E04F1A51084114D3
:10078000510479F7DEC0843611F0893631F5F8016D
:1007900027FF07C060817181828193810C5F1F4FA9
:1007A00008C060817181882777FD8095982F0E5F42
:1007B0001F4F2F76B22E97FF09C0909580957095A8
:1007C00061957F4F8F4F9F4F2068B22E2AE030E017
:1007D000A4016FD2A82EA81843C0853729F42F7E14
:1007E000B22E2AE030E025C0F22FF97FBF2E8F36DF
:1007F000C1F018F4883579F0ADC0803719F088372A
:1008000021F0A8C02F2F2061B22EB4FE0DC08B2D79
:100810008460B82E09C024FF0AC09F2F9660B92EAD
:1008200006C028E030E005C020E130E002C020E151
:1008300032E0F801B7FE07C0608171818281938147
:100840000C5F1F4F06C06081718180E090E00E5FF9
:100850001F4FA4012ED2A82EA818FB2DFF77BF2E64
:10086000B6FE0BC02B2D2E7FA51450F4B4FE0AC08B
:10087000B2FC08C02B2D2E7E05C07A2C2B2D03C078
:100880007A2C01C0752C24FF0DC0FE01EA0DF11D6C
:100890008081803311F4297E09C022FF06C0739441
:1008A000739404C0822F867809F0739423FD12C0DC
:1008B00020FF06C05A2C731418F4530C5718732CCD
:1008C000731460F4B70180E290E02C87C0D1739478
:1008D0002C85F6CF731410F4371801C0312C24FF87
:1008E00011C0B70180E390E02C87B1D12C8522FFA5
:1008F00016C021FF03C088E590E002C088E790E0C1
:10090000B7010CC0822F867851F021FD02C080E231
:1009100001C08BE227FD8DE2B70190E098D1A514CC
:1009200030F4B70180E390E092D15A94F8CFAA94C2
:10093000F401EA0DF11D8081B70190E088D1A1108A
:10094000F6CF332009F45DCEB70180E290E07FD18D
:100950003A94F7CFF7018681978102C08FEF9FEF1E
:100960002C960FB6F894DEBF0FBECDBFDF91CF91AE
:100970001F910F91FF90EF90DF90CF90BF90AF90BD
:100980009F908F907F906F905F904F903F902F90AF
:1009900008950F931F93CF93DF93869F8001879FC6
:1009A000100D969F100D1124C8010DD0EC01009779
:1009B00021F0A80160E070E038D1CE01DF91CF9145
:1009C0001F910F910895CF93DF938230910510F41A
:1009D00082E090E0E091F802F091F90220E030E04E
:1009E000A0E0B0E0309739F14081518148175907B4
:1009F000B8F04817590771F482819381109729F054
:100A000013969C938E9312972CC09093F902809327
:100A1000F80227C02115310531F04217530718F0AD
:100A2000A901DB0101C0EF019A01BD01DF010280D4
:100A3000F381E02DD7CF21153105F9F0281B390BB3
:100A40002430310580F48A819B816115710521F084
:100A5000FB019383828304C09093F9028093F80290
:100A6000FE01329644C0FE01E20FF31F8193919381
:100A700022503109398328833AC02091F6023091FF
:100A8000F702232B41F420910202309103023093AC
:100A9000F7022093F6022091000230910102211505
:100AA000310541F42DB73EB7409104025091050243
:100AB000241B350BE091F602F091F702E217F307E1
:100AC000A0F42E1B3F0B2817390778F0AC014E5FBE
:100AD0005F4F2417350748F04E0F5F1F5093F70202
:100AE0004093F6028193919302C0E0E0F0E0CF01E1
:100AF000DF91CF910895CF93DF93009709F487C0DA
:100B0000FC01329713821282C091F802D091F9024F
:100B1000209781F420813181280F391F8091F602BE
:100B20009091F7028217930779F5F093F702E0931B
:100B3000F6026DC0DE0120E030E0AE17BF0750F4D2
:100B400012964D915C9113979D014115510509F144
:100B5000DA01F3CFB383A28340815181840F951FC3
:100B60008A179B0771F48D919C911197840F951FA3
:100B700002969183808312968D919C911397938313
:100B800082832115310529F4F093F902E093F802EC
:100B90003EC0D9011396FC93EE9312974D915D914F
:100BA000A40FB51FEA17FB0779F480819181840FA8
:100BB000951F0296D90111969C938E938281938101
:100BC00013969C938E931297E0E0F0E08A819B81CC
:100BD000009719F0FE01EC01F9CFCE0102962881B1
:100BE0003981820F931F2091F6023091F702281766
:100BF000390769F4309729F41092F9021092F8023B
:100C000002C013821282D093F702C093F602DF91E2
:100C1000CF910895FC010590615070400110D8F704
:100C2000809590958E0F9F1F0895DC0101C06D93F4
:100C300041505040E0F70895FC0161507040019030
:100C40000110D8F7809590958E0F9F1F08950F93F0
:100C50001F93CF93DF93182F092FEB018B8181FD19
:100C600003C08FEF9FEF20C082FF10C04E815F81D5
:100C70002C813D81421753077CF4E881F9819F0163
:100C80002F5F3F4F39832883108306C0E885F9859D
:100C9000812F1995892B29F72E813F812F5F3F4F97
:100CA0003F832E83812F902FDF91CF911F910F9142
:100CB0000895FA01AA27283051F1203181F1E894F2
:100CC0006F936E7F6E5F7F4F8F4F9F4FAF4FB1E03F
:100CD0003ED0B4E03CD0670F781F891F9A1FA11D3A
:100CE000680F791F8A1F911DA11D6A0F711D811D3B
:100CF000911DA11D20D009F468943F912AE0269F00
:100D000011243019305D3193DEF6CF010895462F5E
:100D10004770405D4193B3E00FD0C9F7F6CF462F3F
:100D20004F70405D4A3318F0495D31FD40524193A8
:100D300002D0A9F7EACFB4E0A69597958795779565
:100D40006795BA95C9F700976105710508959B01EC
:100D5000AC010A2E06945795479537952795BA9575
:100D6000C9F7620F731F841F951FA01D0895F89483
:020D7000FFCFB3
:100D72000000FA0220004C656E677468206F6620DE
:100D82006461746120746F6F206269672E004C6524
:100D92006E677468203E20382C206E6F7420616C60
:100DA2006C6F7765642E005374617475732072657D
:100DB2006769737465727320696E206D6370323572
:100DC20031355F726561645F73746174757328296C
:100DD200206E6F74206964656E746963616C2E00A5
:100DE2007374617475735265673A202578200A001E
:100DF2004D6F7474617474206D656C64696E6720E4
:100E020070E5207265636569766520627566666560
:100E12007220300049443A20256920204C454E4733
:100E220054483A202569202020414C4C204441540A
:100E320041202025632020202025632020202563B7
:100E42002020202025632020202025632020202010
:100E520025632020202025632020202025630A00EE
:00000001FF
