:10000000C2C00000E0C00000DEC00000C0C40000AC
:10001000DAC00000D8C00000D6C00000D4C0000084
:10002000D2C00000D0C00000CEC00000CCC0000094
:10003000CAC00000C8C00000C6C00000C4C00000A4
:10004000C2C00000C0C00000BEC00000BCC00000B4
:10005000BAC00000B8C00000B6C00000B4C00000C4
:10006000B2C00000B0C00000AEC00000ACC00000D4
:10007000AAC00000A0C40000A6C00000A4C00000E8
:10008000AEC40000A0C000009EC000009CC00000E4
:100090009AC0000098C0000096C0000074C500001F
:1000A00092C0000090C000008EC000008CC0000014
:1000B0008AC0000088C0000086C0000084C0000024
:1000C00082C0000080C000007EC000007CC0000034
:1000D0007AC0000078C0000076C0000074C0000044
:1000E00072C00000DE0530063006300630063006ED
:1000F00030063006DE0530063006300630063006A3
:1001000030063006E0053006300630063006300690
:10011000300630063006300630063006300630062F
:1001200030063006E0053006300630063006300670
:10013000300630063006300630063006300630060F
:10014000300630062C063006300630063006300603
:100150003006300609063006300630063006300616
:1001600030063006300630063006300630063006DF
:1001700030063006FD053006300630063006300603
:10018000300630061B0611241FBECFEFD1E2DEBFC2
:10019000CDBF00E00CBF12E0A0E0B2E0EEE8F9E174
:1001A00000E00BBF02C007900D92A639B107D9F746
:1001B00022E0A6E9B2E001C01D92AB3CB207E1F734
:1001C00046D30C94C50C1CCF49D143E063E08BE2CD
:1001D0006ED160E080E22ED160E081E22BD160E060
:1001E00084E228D160E085E225D140E060EE8FE036
:1001F0005EC10895EF92FF920F931F93CF93DF9309
:100200007C0180E30CD183FDFCCFF7016081629516
:10021000660F607E82E30ED1F70160817181769571
:100220006795769567957695679581E303D1F70194
:10023000628985E3FFD0F7018289893018F4811142
:1002400009C01BC087E092E09F938F93B1D70F90B6
:100250000F9016C087010E5F1F4FC0E0D0E0F8017D
:1002600060810E5F1F4F8C2F8A5CE4D02196F701CE
:10027000228930E0C217D30794F380E090E0FDD0EC
:10028000DF91CF911F910F91FF90EF9008959F9272
:10029000AF92BF92CF92DF92EF92FF920F931F9394
:1002A000CF93DF937C01FC0111821082128A1382AA
:1002B00012828CE2B4D080FF4BC081E6B0D0C82F50
:1002C000D0E082E6ACD090E05E01AA0CBB1CAA0C88
:1002D000BB1CAA0CBB1C96958795929582958F7036
:1002E00089279F708927A82AB92A85E698D0982E51
:1002F000F8E0F81730F0C82ED12C1C141D045CF067
:100300001CC08FE192E09F938F9352D70F900F9074
:1003100080E090E01FC087010E5F1F4FC0E0D0E07B
:100320008C2F8A597CD0282F30E0F801219331930B
:100330008F012196CC15DD059CF3F701B182A082D7
:10034000928A40E061E08CE2B2D081E090E002C0AD
:1003500081E090E0DF91CF911F910F91FF90EF909E
:10036000DF90CF90BF90AF909F900895613071055E
:1003700021F49093B8028093B7022091B702309194
:10038000B80228173907CCF42091B7023091B8028F
:10039000AC01421B530B9A0144E6429FC001439FAC
:1003A000900D11242091B7023091B8026FEF70E0E8
:1003B000621B730B86D6CB0108952091B702309152
:1003C000B80282179307ACF42091B7023091B802BB
:1003D000AC01421B530B9A0144E6429FC001439F6C
:1003E000900D11246091B7027091B8026AD6CB01CA
:1003F000089580E090E00895BC01882777FD8095FE
:10040000982F48D520E030E04FE753E4A8D420E00F
:1004100030E048EC52E4F2D50AD5CB010895CF93F1
:10042000C82F2F9883E062D08C2F60D064D02F9A91
:10043000CF910895CF93DF93D82FC62F2F9882E0C6
:1004400055D08D2F53D08C2F51D02F9ADF91CF9133
:1004500008952F9880EC4AD02F9A08953CD0F9DF68
:1004600083E08A95F1F700008EE0D9DF982F907E27
:1004700081E0903809F480E008952F98009719F4EE
:1004800081E834D007C0019719F482E82FD002C068
:1004900084E82CD02F9A0895CF932F9880EA26D005
:1004A0002AD0C82F28D02F9A8C2FCF9108951F9330
:1004B000CF93DF93182FD62FC42F2F9885E016D017
:1004C000812F14D08D2F12D08C2F10D02F9ADF9126
:1004D000CF911F91089584B1866084B9239881E5F6
:1004E0008CBD279A2F9A209A289A08958EBD0DB414
:1004F00007FEFDCF089580E0F9DF8EB50895E0ECAA
:10050000F0E0908195FFFDCF8093C6000895E0EC68
:10051000F0E080818823ECF78091C60008959093E5
:10052000C5008093C40088E18093C10067E872E051
:100530008FE792E0F3C50895CF93DF9300D0CDB756
:10054000DEB79EE599831A828B8363E070E0CE016B
:100550000196F7D20F900F900F90DF91CF910895F1
:10056000E1E0F1E0808180648083A2E0B1E08C91E1
:1005700080648C938081806280838C918F7D8C934A
:10058000808188608083E7E0F1E080818E7F8083D6
:1005900080818D7F808380818B7F80838081877F36
:1005A000808380818F7E808380818F7D8083808126
:1005B0008F7B808380818F7780830895E2E0F1E0F4
:1005C0008081877F80832AE62A95F1F700C0809199
:1005D000060190E0982F88272081286020832AE652
:1005E0002A95F1F700C020910601822B0895CF9340
:1005F000DF9316D0EC01DF938F9388E392E09F9313
:100600008F93D6D581E090E00F900F900F900F90D0
:10061000CD32D14010F080E090E0DF91CF9108958D
:10062000209178008091790090E0982F8827820FA0
:10063000911D0895EAE7F0E0808180648083089549
:100640008098AAE7B0E08C9180688C93ECE7F0E0AA
:1006500080818F7E80838081877F808380818B7F74
:10066000808380818D7F808380818E7F8083808165
:100670008F7780838081806480838C918F7D8C9341
:100680008C9188608C938C918E7F8C938C918260FE
:100690008C938C918B7F8C93CDCF0895A1E0B1E0AA
:1006A0008C9180618C93E2E0F1E0808180618083B5
:1006B0008C9182608C9380818D7F808380E03CCFA1
:1006C0000895E2E0F1E080818D7F80830895E2E08B
:1006D000F1E080818260808308954F925F926F92F3
:1006E0007F928F929F92AF92BF92CF92DF92EF92C2
:1006F000FF926C017B018091960290919702892B69
:1007000039F481E090E0909397028093960292C032
:100710008091980290919902681B790B882777FD48
:100720008095982FB7D390582DEC3CEC4CE45DE3CA
:1007300016D34B015C01F0929902E0929802B60147
:10074000882777FD8095982FA5D36B017C0120E049
:1007500030E04AE754E4C501B40101D39B01AC0188
:10076000C701B60193D26B017C0160919A0270912E
:100770009B0280919C0290919D02A701960187D2D5
:1007800060939A0270939B0280939C0290939D02C7
:1007900080909E0290909F02A090A002B090A10233
:1007A00020E030E040E251E4C701B60123D418163E
:1007B00014F48DDF0AC020E030E040E251ECC701C4
:1007C000B601C9D2882344F57CDFC701B6012FD317
:1007D0009B01772324F422273327261B370BB901EB
:1007E000882777FD8095982F55D32AE939E949E97B
:1007F0005FE304D42B013C01A5019401C701B601BC
:1008000045D29B01AC01C301B20141D210D3CB014F
:100810006A3F710528F402C080E090E08DDE02C0DE
:1008200086E98ADEC0929E02D0929F02E092A002E8
:10083000F092A102FF90EF90DF90CF90BF90AF9029
:100840009F908F907F906F905F904F900895CF937F
:10085000DF93CDB7DEB764970FB6F894DEBF0FBE57
:10086000CDBFF89487E690E05ADEAEDC1FD1E8DE1B
:100870005ED114DF75DEEED078940F2EF5E08F2E6A
:10088000912CF02D552453940F2EFCE4CF2EF2E042
:10089000DF2EF02D66246394712CAA24AA94B12C27
:1008A0008091AA029091AB02892B79F0A0DE9A8206
:1008B00089825B8A99279C838B83CE0101969ADC7F
:1008C000B9DE1092AB021092AA02E6DD8C8B8C8905
:1008D00080FFE6CFCE010196DADC3B804C800B85B1
:1008E0001C85EF84F888FF92EF928E858F938D851B
:1008F0008F931F930F938A858F9389858F93888514
:100900008F938F818F938E818F938D818F934F9251
:100910003F928B891F928F938A818F9389818F93C6
:10092000DF92CF9245D41092AD021092AC0240E01B
:10093000652D8CE2BCDD8091A4029091A502019608
:100940009093A5028093A4026091A4027091A502E5
:10095000832D942D0BDD9093A3028093A2022EDEB3
:100960009093A9028093A8027092A7026092A602B7
:10097000C5018E199F0968D00FB6F894DEBF0FBE6F
:10098000CDBF0130110509F08BCF67D089CF1F9201
:100990000F920FB60F9211248F939F9381E090E0F6
:1009A0009093AD028093AC029F918F910F900FBEF8
:1009B0000F901F9018951F920F920FB60F9211244F
:1009C0008F939F9381E090E09093AB028093AA0273
:1009D0009F918F910F900FBE0F901F9018951F92AF
:1009E0000F920FB60F9211240BB60F922F933F93D5
:1009F0004F935F936F937F938F939F93AF93BF9327
:100A0000EF93FF938091A6029091A702019749F47A
:100A10006091A8027091A9028091A2029091A30214
:100A20005CDEFF91EF91BF91AF919F918F917F918C
:100A30006F915F914F913F912F910F900BBE0F904F
:100A40000FBE0F901F901895D7DC8536910508F4DE
:100A500055C00895819A8998089589982FEF80E765
:100A600092E0215080409040E1F700C00000899A58
:100A7000089585E39CE090939900809398001092EC
:100A80009000E1E9F0E010828081886080838081BD
:100A90008460808380818D7F808380818E7F80834E
:100AA000E1E7F0E08081826080830895A0E8B0E013
:100AB0008C918E7F8C938C9182608C93E1E8F0E036
:100AC0008081886080838081806180838C91806850
:100AD0008C938C918F7B8C938081846080838081C8
:100AE0008D7F808380818E7F8083259A81EE94E044
:100AF0009093870080938600BCCF0895853691053A
:100B000098F44BE4489F9001499F300D1124C9018E
:100B100064E670E0D6D2685C7F4F70938900609382
:100B2000880081E090E008958FEF9FEF08958CE0BA
:100B30008093B8008FEF8093BB0084E08093BC006B
:100B40000895ECEBF0E0208120FDFDCF6093B00232
:100B5000FC0120812093B10220FD0CC0623050F0D6
:100B6000DC011196E2EBF2E081E09D9191938F5FC1
:100B70008613FBCF1092AF0288EF8093060285EABE
:100B80008093BC0008951F920F920FB60F9211240C
:100B90000BB60F922F933F938F939F93AF93BF9377
:100BA000EF93FF938091B90090E0FC013897E13515
:100BB000F10508F055C0EE58FF4F96C21092AE02F4
:100BC000E091AE028091B002E81770F481E08E0FE0
:100BD0008093AE02F0E0EF54FD4F80818093BB0024
:100BE00085E88093BC0043C08091AF028160809310
:100BF000AF0284E98093BC003AC0E091AE0281E08C
:100C00008E0F8093AE028091BB00F0E0EF54FD4F59
:100C100080832091AE0230E08091B00290E0019795
:100C20002817390724F485EC8093BC0020C085E8A0
:100C30008093BC001CC08091BB00E091AE02F0E04C
:100C4000EF54FD4F80838091AF0281608093AF02AB
:100C500084E98093BC000BC085EA8093BC0007C088
:100C60008091B9008093060284E08093BC00FF91DC
:100C7000EF91BF91AF919F918F913F912F910F90E5
:100C80000BBE0F900FBE0F901F9018955058BB27AA
:100C9000AA270ED075C166D130F06BD120F031F4A7
:100CA0009F3F11F41EF45BC10EF4E095E7FB51C1C8
:100CB000E92F77D180F3BA17620773078407950786
:100CC00018F071F49EF58FC10EF4E0950B2EBA2F3B
:100CD000A02D0B01B90190010C01CA01A001112442
:100CE000FF27591B99F0593F50F4503E68F11A16EE
:100CF000F040A22F232F342F4427585FF3CF46957F
:100D000037952795A795F0405395C9F77EF41F16A0
:100D1000BA0B620B730B840BBAF09150A1F0FF0F6A
:100D2000BB1F661F771F881FC2F70EC0BA0F621F56
:100D3000731F841F48F4879577956795B795F79546
:100D40009E3F08F0B3CF9395880F08F09927EE0FD8
:100D5000979587950895D9D008F481E008950CD02F
:100D60000FC107D140F0FED030F021F45F3F19F001
:100D7000F0C0511139C1F3C014D198F39923C9F3CC
:100D80005523B1F3951B550BBB27AA276217730791
:100D9000840738F09F5F5F4F220F331F441FAA1F45
:100DA000A9F333D00E2E3AF0E0E830D09150504005
:100DB000E695001CCAF729D0FE2F27D0660F771FB3
:100DC000881FBB1F261737074807AB07B0E809F095
:100DD000BB0B802DBF01FF2793585F4F2AF09E3F2A
:100DE000510568F0B6C000C15F3FECF3983EDCF3FC
:100DF000869577956795B795F7959F5FC9F7880FA3
:100E0000911D9695879597F90895E1E0660F771FF4
:100E1000881FBB1F621773078407BA0720F0621B85
:100E2000730B840BBA0BEE1F88F7E095089504D07E
:100E30006894B111D9C00895BCD088F09F5790F044
:100E4000B92F9927B751A0F0D1F0660F771F881FEF
:100E5000991F1AF0BA95C9F712C0B13081F0C3D00A
:100E6000B1E00895C0C0672F782F8827B85F39F0A8
:100E7000B93FCCF3869577956795B395D9F73EF44E
:100E800090958095709561957F4F8F4F9F4F0895F6
:100E9000E89409C097FB3EF4909580957095619514
:100EA0007F4F8F4F9F4F9923A9F0F92F96E9BB27CA
:100EB0009395F695879577956795B795F111F8CF46
:100EC000FAF4BB0F11F460FF1BC06F5F7F4F8F4FB1
:100ED0009F4F16C0882311F096E911C0772321F0A7
:100EE0009EE8872F762F05C0662371F096E8862F3F
:100EF00070E060E02AF09A95660F771F881FDAF796
:100F0000880F9695879597F90895990F0008550FC2
:100F1000AA0BE0E8FEEF16161706E807F907C0F07F
:100F200012161306E407F50798F0621B730B840B87
:100F3000950B39F40A2661F0232B242B252B21F461
:100F400008950A2609F4A140A6958FEF811D811D01
:100F5000089597F99F6780E870E060E008959FEF3B
:100F600080EC089500240A94161617061806090640
:100F7000089500240A94121613061406050608950F
:100F8000092E0394000C11F4882352F0BB0F40F497
:100F9000BF2B11F460FF04C06F5F7F4F8F4F9F4FD7
:100FA000089557FD9058440F551F59F05F3F71F059
:100FB0004795880F97FB991F61F09F3F79F08795C0
:100FC0000895121613061406551FF2CF4695F1DF49
:100FD00008C0161617061806991FF1CF86957105D9
:100FE000610508940895E894BB2766277727CB010D
:100FF00097F908958ADF08F48FEF08950BD0C0CFDA
:10100000B1DF28F0B6DF18F0952309F0A2CFA7CF03
:101010001124EACFC6DFA0F3959FD1F3950F50E0DE
:10102000551F629FF001729FBB27F00DB11D639F9A
:10103000AA27F00DB11DAA1F649F6627B00DA11D40
:10104000661F829F2227B00DA11D621F739FB00DE6
:10105000A11D621F839FA00D611D221F749F332756
:10106000A00D611D231F849F600D211D822F762FEF
:101070006A2F11249F5750408AF0E1F088234AF0EC
:10108000EE0FFF1FBB1F661F771F881F9150504038
:10109000A9F79E3F510570F05CCFA6CF5F3FECF300
:1010A000983EDCF3869577956795B795F795E79524
:1010B0009F5FC1F7FE2B880F911D9695879597F935
:1010C000089597FB072E16F4009406D077FD08D0FC
:1010D00011D007FC05D03EF4909581959F4F08955F
:1010E000709561957F4F0895EE0FFF1F0590F49165
:1010F000E02D1994AA1BBB1B51E107C0AA1FBB1FFF
:10110000A617B70710F0A61BB70B881F991F5A9593
:10111000A9F780959095BC01CD0108950F931F9379
:10112000CF93DF93EC018B01009731F461157105CA
:1011300019F480E090E037C06EE070E081E090E06C
:1011400036D2FC010097A9F380E8838301151105CD
:1011500071F01387028781E883838091C1029091A7
:10116000C202892B21F4F093C202E093C1022097BE
:10117000C9F0D187C0878381826083838091C30255
:101180009091C402892B71F4F093C402E093C302DE
:101190008091C5029091C602892B21F4F093C6027A
:1011A000E093C502CF01DF91CF911F910F91089578
:1011B000CF93DF93CDB7DEB7FE0136966191719183
:1011C000AF018091C3029091C40203D0DF91CF910F
:1011D00008952F923F924F925F926F927F928F92DB
:1011E0009F92AF92BF92CF92DF92EF92FF920F93B6
:1011F0001F93CF93DF93CDB7DEB72C970FB6F8943C
:10120000DEBF0FBECDBF7C016B018A01FC011782DE
:101210001682838181FFB0C1CE0101964C01F70196
:101220009381F60193FD859193FF81916F0188234E
:1012300009F49EC1853239F493FD859193FF819124
:101240006F01853221F4B70190E00FD3E8CF512C24
:10125000312C20E02032A0F48B3269F030F480325F
:1012600059F0833269F420612CC08D3239F080331B
:1012700039F4216026C02260246023C0286021C088
:1012800027FD27C030ED380F3A3078F426FF06C02E
:10129000FAE05F9E300D1124532E13C08AE0389E71
:1012A000300D1124332E20620CC08E3221F426FD25
:1012B0005FC1206406C08C3611F4206802C08836F5
:1012C00041F4F60193FD859193FF81916F018111A6
:1012D000C1CF982F9F7D9554933028F40C5F1F4FFA
:1012E000FFE3F9830DC0833631F0833771F0833526
:1012F00009F057C021C0F801808189830E5F1F4F1C
:1013000044244394512C540114C03801F2E06F0E70
:10131000711CF801A080B18026FF03C0652D70E02C
:1013200002C06FEF7FEFC5012C8794D22C0183019F
:101330002C852F77222E16C03801F2E06F0E711C1B
:10134000F801A080B18026FF03C0652D70E002C0C7
:101350006FEF7FEFC5012C876BD22C012C852068A5
:10136000222E830123FC19C0832D90E048165906D4
:10137000A0F4B70180E290E078D23A94F5CFF5017D
:1013800027FC859127FE81915F01B70190E06DD226
:1013900031103A94F1E04F1A51084114510479F791
:1013A000DEC0843611F0893631F5F80127FF07C019
:1013B00060817181828193810C5F1F4F08C06081C1
:1013C0007181882777FD8095982F0E5F1F4F2F76AC
:1013D000B22E97FF09C090958095709561957F4FCB
:1013E0008F4F9F4F2068B22E2AE030E0A4016FD2C9
:1013F000A82EA81843C0853729F42F7EB22E2AE0E4
:1014000030E025C0F22FF97FBF2E8F36C1F018F4DF
:10141000883579F0ADC0803719F0883721F0A8C041
:101420002F2F2061B22EB4FE0DC08B2D8460B82EFC
:1014300009C024FF0AC09F2F9660B92E06C028E07D
:1014400030E005C020E130E002C020E132E0F801E8
:10145000B7FE07C060817181828193810C5F1F4F4D
:1014600006C06081718180E090E00E5F1F4FA40193
:101470002ED2A82EA818FB2DFF77BF2EB6FE0BC0CC
:101480002B2D2E7FA51450F4B4FE0AC0B2FC08C068
:101490002B2D2E7E05C07A2C2B2D03C07A2C01C05B
:1014A000752C24FF0DC0FE01EA0DF11D80818033F3
:1014B00011F4297E09C022FF06C07394739404C0FE
:1014C000822F867809F0739423FD12C020FF06C096
:1014D0005A2C731418F4530C5718732C731460F4AB
:1014E000B70180E290E02C87C0D173942C85F6CFB1
:1014F000731410F4371801C0312C24FF11C0B70148
:1015000080E390E02C87B1D12C8522FF16C021FF0B
:1015100003C088E590E002C088E790E0B7010CC006
:10152000822F867851F021FD02C080E201C08BE25B
:1015300027FD8DE2B70190E098D1A51430F4B701F2
:1015400080E390E092D15A94F8CFAA94F401EA0D86
:10155000F11D8081B70190E088D1A110F6CF332032
:1015600009F45DCEB70180E290E07FD13A94F7CFE5
:10157000F7018681978102C08FEF9FEF2C960FB6FF
:10158000F894DEBF0FBECDBFDF91CF911F910F91B9
:10159000FF90EF90DF90CF90BF90AF909F908F9093
:1015A0007F906F905F904F903F902F9008950F9392
:1015B0001F93CF93DF93869F8001879F100D969F87
:1015C000100D1124C8010DD0EC01009721F0A801E5
:1015D00060E070E038D1CE01DF91CF911F910F9183
:1015E0000895CF93DF938230910510F482E090E06C
:1015F000E091C902F091CA0220E030E0A0E0B0E042
:10160000309739F14081518148175907B8F0481790
:10161000590771F482819381109729F013969C9356
:101620008E9312972CC09093CA028093C90227C050
:101630002115310531F04217530718F0A901DB01DC
:1016400001C0EF019A01BD01DF010280F381E02DAD
:10165000D7CF21153105F9F0281B390B243031057E
:1016600080F48A819B816115710521F0FB019383D0
:10167000828304C09093CA028093C902FE0132960D
:1016800044C0FE01E20FF31F819391932250310970
:10169000398328833AC02091C7023091C802232B96
:1016A00041F420910202309103023093C80220934A
:1016B000C70220910002309101022115310541F449
:1016C0002DB73EB74091040250910502241B350B03
:1016D000E091C702F091C802E217F307A0F42E1BB5
:1016E0003F0B2817390778F0AC014E5F5F4F241786
:1016F000350748F04E0F5F1F5093C8024093C70252
:101700008193919302C0E0E0F0E0CF01DF91CF91AF
:101710000895CF93DF93009709F487C0FC013297B7
:1017200013821282C091C902D091CA02209781F41B
:1017300020813181280F391F8091C7029091C80202
:101740008217930779F5F093C802E093C7026DC042
:10175000DE0120E030E0AE17BF0750F412964D9145
:101760005C9113979D014115510509F1DA01F3CF01
:10177000B383A28340815181840F951F8A179B07F1
:1017800071F48D919C911197840F951F029691830E
:10179000808312968D919C91139793838283211558
:1017A000310529F4F093CA02E093C9023EC0D90181
:1017B0001396FC93EE9312974D915D91A40FB51F74
:1017C000EA17FB0779F480819181840F951F0296B7
:1017D000D90111969C938E938281938113969C9349
:1017E0008E931297E0E0F0E08A819B81009719F0D8
:1017F000FE01EC01F9CFCE01029628813981820FDA
:10180000931F2091C7023091C8022817390769F445
:10181000309729F41092CA021092C90202C01382B2
:101820001282D093C802C093C702DF91CF9108956E
:10183000FC010590615070400110D8F7809590959B
:101840008E0F9F1F0895DC0101C06D9341505040E1
:10185000E0F70895FC016150704001900110D8F745
:10186000809590958E0F9F1F08950F931F93CF9390
:10187000DF93182F092FEB018B8181FD03C08FEFC0
:101880009FEF20C082FF10C04E815F812C813D817F
:10189000421753077CF4E881F9819F012F5F3F4F86
:1018A00039832883108306C0E885F985812F19952F
:1018B000892B29F72E813F812F5F3F4F3F832E8356
:1018C000812F902FDF91CF911F910F910895FA01F1
:1018D000AA27283051F1203181F1E8946F936E7F6F
:1018E0006E5F7F4F8F4F9F4FAF4FB1E03ED0B4E060
:1018F0003CD0670F781F891F9A1FA11D680F791FA1
:101900008A1F911DA11D6A0F711D811D911DA11DB1
:1019100020D009F468943F912AE0269F11243019C1
:10192000305D3193DEF6CF010895462F4770405D5C
:101930004193B3E00FD0C9F7F6CF462F4F70405D0B
:101940004A3318F0495D31FD4052419302D0A9F766
:10195000EACFB4E0A6959795879577956795BA9560
:10196000C9F700976105710508959B01AC010A2E26
:1019700006945795479537952795BA95C9F7620FFD
:0E198000731F841F951FA01D0895F894FFCFBC
:10198E000000CB022000F84C656E677468206F660D
:10199E00206461746120746F6F206269672E004C41
:1019AE00656E677468203E20382C206E6F7420613F
:1019BE006C6C6F7765642E0041444320524553553D
:1019CE004C542049523A202569200A0049443A20B5
:1019DE00256920204C454E4754483A202569202041
:1019EE0020414C4C20444154412020256920202088
:1019FE0020256920202025692020202025692020EF
:101A0E0020202569202020202569202020202569DE
:061A1E002020200A000058
:00000001FF
